:100000000C9422010C944A010C944A010C944A016C
:100010000C944A010C944A010C944A010C944A0134
:100020000C944A010C944A010C944A010C944A0124
:100030000C944A010C944A010C944A010C944A0114
:100040000C94950A0C944A010C9448070C942207CE
:100050000C944A010C944A010C944A010C944A01F4
:100060000C944A010C944A010000000000000000BA
:10007000000000DEDE00000000080E06080E06008C
:100080002828FE28FE282800485C54FE54742400CA
:10009000466630180C666200000000000000000098
:1000A0000000080E060000000000007CFE82000038
:1000B0000082FE7C00000000002A1C3E1C2A00007A
:1000C0000010107C7C101000000080E06000000038
:1000D00000101010101000000000C0C00000000050
:1000E000C06030180C0600007CFE828282FE7C001C
:1000F000000004FEFE000000C4E6A2B2929E8C0046
:1001000044C6929292FE6C0030382C26FEFE2000EF
:100110004ECE8A8A8AFA720078FC969292F2600039
:100120000202E2F21A0E06006CFE929292FE6C003F
:100130000C9E9292D27E3C0000006C6C000000008D
:100140000080E666000000000010386CC6820000E7
:1001500000282828282828000082C66C38100000B3
:100160000406A2B2121E0C007CFE82BAAA3E3C001B
:10017000F8FC262626FCF800FEFE929292FE6C0009
:10018000387CC68282C64400FEFE8282C67C38006D
:10019000FEFE929292828200FEFE12121202020073
:1001A000387CC682A2E6E400FEFE101010FEFE00BF
:1001B000000000FEFE00000060E0808080FE7E0007
:1001C000FEFE10386CC6C600FEFE80808080800077
:1001D000FEFE1C381CFEFE00FEFE0C1830FEFE006B
:1001E0007CFE828282FE7C00FEFE1212121E0C0039
:1001F0003C7E4262E2FEBC00FEFE121232FECC00E9
:100200004CDE9A92B2F664000606FEFEFE0606007A
:100210007EFEC08080FEFE003E7EE0C0E07E3E00AE
:10022000FEFE603060FEFE00C6EE7C387CEEC6004E
:10023000000E1EF0F01E0E0082C2E2B29A8E860000
:100240000B0DDF0A11241FBECFEFD8E0DEBFCDBFFC
:1002500011E0A0E0B1E0EAE8F0E202C005900D9202
:10026000A836B107D9F725E0A8E6B1E001C01D9294
:10027000AF3BB207E1F711E0C1E2D1E004C0219742
:10028000FE010E94D50DC032D107C9F70E94E50AD0
:100290000C9438100C940000FC01918D828D9817FD
:1002A00061F0828DDF01A80FB11D5D968C91928D5A
:1002B0009F5F9F73928F90E008958FEF9FEF089557
:1002C000FC01918D828D981731F0828DE80FF11D20
:1002D000858D90E008958FEF9FEF0895FC01918D3B
:1002E000228D892F90E0805C9F4F821B91098F7334
:1002F00099270895EF92FF920F931F93CF93DF9367
:10030000EC01909169019F5F292F2770209369016B
:1003100090FF02C090E801C090E021FD906424703D
:1003200009F0906220E1290FFE013C967E018FE0EA
:10033000E80EF11C00E011E06191662331F070E0FD
:10034000C8010E94650D6F5F01C060E0DF01149776
:100350006C93322F369F030E30E0311D1124CF01F4
:100360000797311103C0EC01188203C03150EC0132
:100370003883662311F061506C93EE15FF05E1F6AA
:10038000DF91CF911F910F91FF90EF90089580E939
:1003900091E00895539A08950F931F93CF93DF939D
:1003A000CDB7DEB762970FB6F894DEBF0FBECDBFF4
:1003B0008C01F901DC011C968C917A8369835C8342
:1003C0004B835E834D8390819D8791819E8792812F
:1003D0009F87813029F4CE0101960E947A0106C0E0
:1003E0001C861B861A86198618861F8283E0888BD6
:1003F0001A8A198AD801ED91FC910484F585E02DC3
:10040000BE016F5F7F4FC801099562960FB6F894E1
:10041000DEBF0FBECDBFDF91CF911F910F91089529
:100420000F931F93CF93DF93CDB7DEB762970FB6CD
:10043000F894DEBF0FBECDBF8C01F901DC011C9624
:100440008C917A8369835C834B835E834D83908137
:100450009D8791819E8792819F87813029F4CE016B
:1004600001960E947A0106C01C861B861A86198690
:1004700018861F82188A1A8A198AD801ED91FC9170
:100480000484F585E02DBE016F5F7F4FC80109959B
:1004900062960FB6F894DEBF0FBECDBFDF91CF914D
:1004A0001F910F91089580E090E00895FC018585EB
:1004B00096850895CF93DF9300D000D000D0CDB7BC
:1004C000DEB7AB011C821D821E82DC01ED91FC9126
:1004D0000190F081E02D19821A821B829E012F5F0C
:1004E0003F4FBE016C5F7F4F099526960FB6F8947B
:1004F000DEBF0FBECDBFDF91CF9108954F925F92C7
:100500006F927F928F92AF92BF92CF92EF92FF92B3
:100510000F931F93CF93DF933C01EB010E94AE0832
:10052000F30127853089621B730B6A307105B0F3C4
:10053000F894E881F9815BB158608BB1877F8BB902
:100540006A859F81262F291B922F2F83BF844A8083
:100550005B807D85FC84EE847F5FF394E3943E8131
:100560004885A984CB841181D20120E0C32F022FBA
:10057000322F3181112788943111390F08F43FEF60
:100580009195889470FD130F1795889471FD130F42
:100590001795889472FD130F1795889473FD130FA8
:1005A0001795889474FD130F1795889475FD130F94
:1005B0001795889476FD130F1795889477FD130F80
:1005C00017958894232F7111212F960F122F002C2D
:1005D0005BB900C017FF8BB930812227889400C017
:1005E00000C0002C8BB931113C0F00C0002C5BB94E
:1005F00000C016FF8BB908F43FEFC195889400C086
:1006000000C0002C8BB9F0FC230F00C0002C5BB99C
:1006100000C015FF8BB927958894F1FC230F00C00B
:1006200000C0002C8BB92795889400C0002C5BB9C2
:1006300000C014FF8BB9F2FC230F2795889400C0EB
:1006400000C0002C8BB9F3FC230F00C0002C5BB959
:1006500000C013FF8BB927958894F4FC230F00C0CA
:1006600000C0002C8BB92795889400C0002C5BB982
:1006700000C012FF8BB9F5FC230F2795889400C0AA
:1006800000C0002C8BB9F6FC230F00C0002C5BB916
:1006900000C011FF8BB927958894F7FC230F00C089
:1006A00000C0002C8BB92795889400C0002C5BB942
:1006B00000C010FF8BB9132FF110122FCA0D00C00C
:1006C00000C0002C8BB900C000C0002C5BB900C07A
:1006D00017FF8BB932812227889400C000C0002CFC
:1006E0008BB93111340F00C0002C5BB900C016FF6C
:1006F0008BB908F43FEFEB0DF11D00C000C0002CDA
:100700008BB9E0FC230F00C0002C5BB900C015FFC3
:100710008BB927958894E1FC230F00C000C0002C02
:100720008BB92795889400C0002C5BB900C014FFDA
:100730008BB9E2FC230F2795889400C000C0002CE1
:100740008BB9E3FC230F00C0002C5BB900C013FF82
:100750008BB927958894E4FC230F00C000C0002CBF
:100760008BB92795889400C0002C5BB900C012FF9C
:100770008BB9E5FC230F2795889400C000C0002C9E
:100780008BB9E6FC230F00C0002C5BB900C011FF41
:100790008BB927958894E7FC230F00C000C0002C7C
:1007A0008BB92795889400C0002C5BB900C010FF5E
:1007B0008BB9132FE110122F419500C000C0002CFF
:1007C0008BB94C0D00C000C05BB900C017FF8BB9DE
:1007D00031812227889400C000C0002C8BB93111D0
:1007E000390F00C0002C5BB900C016FF8BB908F4AC
:1007F0003FEF9195889400C000C0002C8BB970FD2C
:10080000230F00C0002C5BB900C015FF8BB92795E2
:10081000889471FD230F00C000C0002C8BB9279570
:10082000889400C0002C5BB900C014FF8BB972FD26
:10083000230F2795889400C000C0002C8BB973FD4E
:10084000230F00C0002C5BB900C013FF8BB92795A4
:10085000889474FD230F00C000C0002C8BB927952D
:10086000889400C0002C5BB900C012FF8BB975FDE5
:10087000230F2795889400C000C0002C8BB976FD0B
:10088000230F00C0002C5BB900C011FF8BB9279566
:10089000889477FD230F00C000C0002C8BB92795EA
:1008A000889400C0002C5BB900C010FF8BB9132FD7
:1008B0007111122F960F00C000C0002C8BB9119738
:1008C00009F086CE20EE31E0D2010E94BA0DDC01A3
:1008D000CB01F4E0B695A79597958795FA95D1F752
:1008E00020E030E0A9016AE9469E412D569E400D68
:1008F000511D1124840F951FA11DB11D893E43E098
:100900009407A105B10588F1885E9340A109B1095A
:1009100042E0B695A795979587954A95D1F747E018
:10092000849F212D949F200D311D11246091680119
:1009300070E0860F971F820F931F4091F70450912C
:10094000F8046091F9047091FA04292F3327420FBB
:10095000531F611D711D4093F7045093F804609379
:10096000F9047093FA048093680178940E94AE08A9
:10097000F301708B6787DF91CF911F910F91FF90EB
:10098000EF90CF90BF90AF908F907F906F905F90DF
:100990004F900895FF920F931F93CF93DF9300D052
:1009A000CDB7DEB7FF24F3948BEF94E00E946E0185
:1009B000892B91F18BEF94E00E944C018D3019F45A
:1009C000F0926A0122C089831A820091A9051091D0
:1009D000AA050F5F1F4FB80185EA95E00E949B06AC
:1009E000882399F02091A5053091A6058091A9054D
:1009F0009091AA05BE016F5F7F4F820F931F0E94E7
:100A0000B30E1093AA050093A90562E070E080E0A0
:100A100090E00E948A09C8CF0F900F90DF91CF918C
:100A20001F910F91FF9008950E94EF0581110C9482
:100A3000CA040895FC01848DDF01A80FB11DA35ADB
:100A4000BF4F2C91848D90E001968F739927848FEE
:100A5000A689B7892C93A089B1898C9180648C93E5
:100A6000938D848D981306C00288F389E02D8081D0
:100A70008F7D80830895EF92FF920F931F93CF9302
:100A8000DF93EC017B0100E010E000FD03C06BE4AC
:100A900071E002C069E371E0C7010E94C2060F5F06
:100AA0001F4F0330110589F7198218821B821A82A1
:100AB0001D821C82B701CE010E946206CE01DF9129
:100AC000CF911F910F91FF90EF9008954F925F92F9
:100AD0006F927F92AF92BF92CF92DF92EF92FF928E
:100AE0000F931F93CF93DF93FC0110821182128228
:100AF0004423B9F18B01075F1F4F5C01EB012C967A
:100B0000442E512C612C712CD8011397CC90D80114
:100B10002D918D01CC20F9F02223E9F0822F90E075
:100B2000A0E0B0E09C01AD012F5F3F4F4F4F5F4F02
:100B3000C301B2010E94550D9B01AC01D12CE12CE7
:100B4000F12CC701B6016F5F7F4F8F4F9F4F0E94FF
:100B5000550DD5018C93BFEFAB1ABB0A0C171D07BF
:100B600099F6CF01DF91CF911F910F91FF90EF90F8
:100B7000DF90CF90BF90AF907F906F905F904F903D
:100B800008950895CF92DF92EF92FF920F931F93F3
:100B9000CF93DF936C017A018B01C0E0D0E0CE15DA
:100BA000DF0589F0D8016D918D01D601ED91FC91A1
:100BB0000190F081E02DC6010995892B11F47E0189
:100BC00002C02196ECCFC701DF91CF911F910F9109
:100BD000FF90EF90DF90CF9008950E94A50E8BEFCD
:100BE00094E00E946E0121E0892B09F420E0822F1D
:100BF0000895EF92FF920F931F93CF93DF93EC0131
:100C000081E0888F9B8D8C8D981305C0E889F989C8
:100C1000808185FD24C0F62E0B8D10E00F5F1F4FE5
:100C20000F731127E02E8C8DE8120CC00FB607FC55
:100C3000FACFE889F989808185FFF5CFCE010E943E
:100C40001A05F1CF8B8DFE01E80FF11DE35AFF4F1E
:100C5000F0820B8FEA89FB898081806207C0EE8970
:100C6000FF896083E889F98980818064808381E0DD
:100C700090E0DF91CF911F910F91FF90EF90089539
:100C8000CF93DF93EC01888D8823C9F0EA89FB8933
:100C9000808185FD05C0A889B9898C9186FD0FC02A
:100CA0000FB607FCF5CF808185FFF2CFA889B989FF
:100CB0008C9185FFEDCFCE010E941A05E7CFDF9121
:100CC000CF9108950F931F93CF93DF938C01EB0186
:100CD000FC01808191810097B1F068817981611573
:100CE000710579F0428153812C813D814217530770
:100CF00040F00E94B30E8C819D81F801958384831E
:100D000013C00E944F0F88819981F80191838083DD
:100D10008A819B81938382838C819D819583848347
:100D2000198218821B821A821D821C82DF91CF9148
:100D30001F910F9108950F931F93CF93DF93EC01B1
:100D400088819981009729F02A813B8126173707EE
:100D500088F48B016F5F7F4F0E94DB0D009761F07D
:100D6000998388831B830A832C813D81232B11F473
:100D7000FC01108281E001C080E0DF91CF911F91E2
:100D80000F910895EF92FF920F931F93CF93DF93EC
:100D90006115710511F480E023C0FB010190002072
:100DA000E9F73197E61BF70BDC0114960D911C91C6
:100DB00015973097A1F07B01EC010E0F1F1FB801B2
:100DC0000E949B06882339F3288139818C819D817B
:100DD000B701820F931F0E94B30E1D830C8381E025
:100DE000DF91CF911F910F91FF90EF900895EF92B7
:100DF000FF920F931F93CF93DF93EC017B018A0146
:100E0000BA010E949B062881398181110DC02115EC
:100E1000310519F0C9010E944F0F198218821D82F5
:100E20001C821B821A8206C01D830C83B701C90174
:100E30000E94B30ECE01DF91CF911F910F91FF90D1
:100E4000EF9008951F920F920FB60F9211242F93D7
:100E50003F934F935F936F937F938F939F93AF9342
:100E6000BF93EF93FF938BEF94E00E941A05FF91DD
:100E7000EF91BF91AF919F918F917F916F915F9112
:100E80004F913F912F910F900FBE0F901F9018958B
:100E90001F920F920FB60F9211242F938F939F934F
:100EA000EF93FF93E0910B05F0910C058081E091A9
:100EB0001105F091120582FD12C0908180911405F8
:100EC0008F5F8F7320911505821751F0E091140503
:100ED000F0E0E550FB4F958F8093140501C08081B1
:100EE000FF91EF919F918F912F910F900FBE0F90D7
:100EF0001F901895CF92DF92EF92FF920F931F935E
:100F00008091B9059091BA059C012F5F3F4F3093B6
:100F1000BA052093B90549970CF447C08FB7F894E8
:100F20000091F7041091F8042091F9043091FA042B
:100F30008FBFE091B905F091BA0588EE93E0E89F84
:100F4000B001E99F700DF89F700D1124072E000C61
:100F5000880B990BC090B505D090B605E090B70509
:100F6000F090B805A90198012C193D094E095F09B7
:100F70000E94790D30939A05209399051092BA0535
:100F80001092B9052FB7F8948091F7049091F80466
:100F9000A091F904B091FA042FBF8093B505909306
:100FA000B605A093B705B093B8051F910F91FF90B8
:100FB000EF90DF90CF90089520E0DC0160FF03C048
:100FC00001C02D932D936250E0F77040D0F7089543
:100FD000CF93DF93A0E02A2F30E0FC0144815581BC
:100FE0002417350760F5EC01E881F981309729F481
:100FF0001092B405E4EBF5E002C0E20FF31F60814C
:10100000605243E0220F331F4A95E1F7D8E06D9F0D
:10101000B001112440E050E0FA01E60FF71FE85953
:10102000FF4FE491EA01C20FD31FC553DC4FE883A1
:101030004F5F5F4F4830510579F7AF5FCCCFDF91FD
:10104000CF910895009769F0FC0101900020E9F725
:101050003197AF01481B590BBC018BEF94E00C9406
:10106000C20580E090E008958F929F92AF92BF9268
:101070000F931F93CF93DF93CDB7DEB7A1970FB632
:10108000F894DEBF0FBECDBF19A2423008F44AE08B
:101090008E010F5D1F4F842E912CA12CB12CA50128
:1010A00094010E94790DE62FB901CA01015011097E
:1010B000EA3014F4E05D01C0E95CD801EC93232B25
:1010C000242B252B61F7C8010E942208A1960FB698
:1010D000F894DEBF0FBECDBFDF91CF911F910F916E
:1010E000BF90AF909F908F900895CF92DF92EF9234
:1010F000FF92CF93DF936C01990FEE08FF08F7FE84
:101100001AC0E091FB04F091FC040190F081E02D05
:101110006DE28BEF94E00995EC0166277727CB0110
:101120006C197D098E099F094AE00E9434087C01F0
:10113000EC0EFD1E06C04AE0C701B6010E9434084D
:101140007C018BE391E00E9422088E0D9F1DDF91B0
:10115000CF91FF90EF90DF90CF9008953FB7F89434
:101160008091AC059091AD05A091AE05B091AF0511
:1011700026B5A89B05C02F3F19F00196A11DB11DF2
:101180003FBFBA2FA92F982F8827820F911DA11D2D
:10119000B11DBC01CD0142E0660F771F881F991F6A
:1011A0004A95D1F70895CF92DF92EF92FF920F9375
:1011B0001F93CF93DF9300D000D000D0CDB7DEB720
:1011C0001C821D821E8280919B0590919C05A0919E
:1011D0009D05B0919E05892B8A2B8B2BE9F00E94EF
:1011E000AE080091B0051091B1052091B205309183
:1011F000B305DC01CB01801B910BA20BB30B00915B
:101200009B0510919C0520919D0530919E058017AE
:101210009107A207B307B8F20E94AE086093B00529
:101220007093B1058093B2059093B305E091A30547
:10123000F091A405309709F45CC040919F0550914E
:10124000A0056091A1057091A20580E00995F82E96
:101250000091C9031091CA030115110569F1D80164
:101260001C96EC901C978091990590919A05843674
:10127000910510F41C961C92D801ED91FC91C08050
:10128000D1804F2DB801CE0101960E946605F8016C
:10129000458556859E012F5F3F4FBE016C5F7F4F96
:1012A000C801F6010995D8011C96EC921C9714967A
:1012B0000D911C911597D0CF0E947A070091C90318
:1012C0001091CA0301151105B1F0F80182819381D3
:1012D000009749F0658576859B01220F331F620FC9
:1012E000731F0E94DC07D80114960D911C9115976D
:1012F000E9CFF12CADCF26960FB6F894DEBF0FBE26
:10130000CDBFDF91CF911F910F91FF90EF90DF90B4
:10131000CF9008958F929F92AF92BF92CF92DF921B
:10132000EF92FF926B017C010E94AE084B015C01C1
:10133000C114D104E104F104F1F00E94AE08DC0113
:10134000CB0188199909AA09BB09883E9340A105D8
:10135000B10570F321E0C21AD108E108F10888EE66
:10136000880E83E0981EA11CB11CC114D104E104B5
:10137000F10419F7DDCFFF90EF90DF90CF90BF9091
:10138000AF909F908F900895CF92DF92EF92FF924F
:101390000F931F93CF93DF9300D000D000D0CDB731
:1013A000DEB78A016C837D838E830E94D3088E8191
:1013B0007D8149E851E0D801A553BC4F6C8193E091
:1013C000493C590711F1ED90F12C00E010E020E0CC
:1013D00030E0FA01E00FF11F6701022E01C0CC0CD2
:1013E0000A94EAF7C7FE04C080837183628303C056
:1013F0001082118212822F5F3F4F0D5F1F4F2830E6
:10140000310539F7485E5F4FDACFF090980580914B
:101410009B0590919C05A0919D05B0919E05892BFF
:101420008A2B8B2BE9F00E94AE080091B005109139
:10143000B1052091B2053091B305DC01CB01801BD1
:10144000910BA20BB30B00919B0510919C05209171
:101450009D0530919E0580179107A207B307B8F24A
:101460000E94AE086093B0057093B1058093B205F9
:101470009093B305E091A305F091A405309759F03E
:1014800040919F055091A0056091A1057091A20522
:101490008F2D0995F82E0091C9031091CA030115EB
:1014A000110561F1D8011C96EC901C97809199056B
:1014B00090919A058436910510F41C961C92D801DF
:1014C000ED91FC91C280D3804F2DB801CE010196E1
:1014D0000E946605F80145855685628173819E01EB
:1014E0002F5F3F4FC801F6010995D8011C96EC9279
:1014F0001C9714960D911C911597D1CF0E947A07D5
:1015000064E670E080E090E00E948A0926960FB6BB
:10151000F894DEBF0FBECDBFDF91CF911F910F9129
:10152000FF90EF90DF90CF9008951F920F920FB62B
:101530000F9211242F933F938F939F93AF93BF9359
:101540008091F7049091F804A091F904B091FA0405
:101550003091AB0523E0230F2D3720F40196A11D18
:10156000B11D05C026E8230F0296A11DB11D2093D1
:10157000AB058093F7049093F804A093F904B0931B
:10158000FA048091AC059091AD05A091AE05B091A3
:10159000AF050196A11DB11D8093AC059093AD05DB
:1015A000A093AE05B093AF05BF91AF919F918F917E
:1015B0003F912F910F900FBE0F901F901895809123
:1015C000A5059091A6050C944F0FCF93DF93CDB74F
:1015D000DEB762970FB6F894DEBF0FBECDBF78942A
:1015E00084B5826084BD84B5816084BD85B5826028
:1015F00085BD85B5816085BD80916E0081608093D9
:101600006E00109281008091810082608093810041
:101610008091810081608093810080918000816051
:10162000809380008091B10084608093B1008091AC
:10163000B00081608093B00080917A0084608093D4
:101640007A0080917A00826080937A0080917A009B
:10165000816080937A0080917A00806880937A001C
:101660001092C100E0910B05F0910C0582E080839F
:10167000E0910705F09108051082E0910905F091CD
:101680000A058FEC808310921305E0910F05F0910D
:10169000100586E08083E0910D05F0910E058081B4
:1016A00080618083E0910D05F0910E058081886056
:1016B0008083E0910D05F0910E0580818068808324
:1016C000E0910D05F0910E0580818F7D80838091E2
:1016D0007E01811145C01092700110926F018FEF51
:1016E00080937301809374018093750180937601D8
:1016F000809377018093780181E080937901109243
:101700007B0110927A011092720110927101809106
:10171000C9039091CA03892B31F48DE691E090932F
:10172000CA038093C903E0916B01F0916C0130977B
:1017300021F08DE691E0958384838DE691E090938E
:101740006C0180936B0110927D0110927C018BE102
:1017500091E090936E0180936D0181E080937E0112
:10176000E0916D01F0916E010480F581E02D8DE630
:1017700091E0099589E891E09093700180936F0161
:1017800080EC90E090937B0180937A01E0916D0171
:10179000F0916E010284F385E02D8DE691E00995CC
:1017A000009729F19C0140E050E060E472E48FE092
:1017B00090E00E949B0D722F632F00919B0510916A
:1017C0009C0520919D0530919E05872F962FDA016B
:1017D00080179107A207B30710F4D901C8018093BD
:1017E0009B0590939C05A0939D05B0939E052AE0D0
:1017F000B22EAA24A3949E012F5F3F4F7901C90105
:101800008F5B95406C01B092980580916A018823A6
:1018100009F463C00E94D3084091A9055091AA051C
:101820006091A5057091A6058BEF94E00E94C2051A
:101830008BE391E00E9422088EE391E00E9422084F
:101840006091A9057091AA0580E090E04AE00E94AD
:1018500034088BE391E00E94220810926A01A09262
:10186000880118861F821A8619861C861B8660913D
:10187000A5057091A6056115710541F04091A90576
:101880005091AA05CE0107960E94F706BE01695F36
:101890007F4FC7010E943B05B70185EA95E00E9492
:1018A000620689819A810E944F0F8F8198850E94DC
:1018B0004F0F85EA95E00E94E8078091A905909175
:1018C000AA05909387018093860140E050E06DE384
:1018D00071E085EA95E00E94F706809188018823EF
:1018E00009F11092000100918601109187010350C7
:1018F000110993E0000F111F9A95E1F7C8010E94AA
:101900007508812C912C801691060CF065C0A401FD
:101910006AEF76EE86EE90E00E94C4099FEF891A86
:10192000990AF1CF1E861D86188A1F861A8A198A7F
:101930004CE050E06DE471E0CE010D960E94F70698
:1019400018861F821A8619861C861B866D857E85E1
:101950006115710531F049895A89CE0107960E94B7
:10196000F706BE01695F7F4FC7010E943B05B701C3
:10197000CE010D960E94620689819A810E944F0FC6
:101980008F8198850E944F0FCE010D960E94E80727
:1019900009891A8910938701009386010350110960
:1019A00083E0000F111F8A95E1F7C8010E947508B6
:1019B000812C912C801691065CF4A40162EE7BE2EE
:1019C0008AE890E00E94C4092FEF821A920AF2CFAF
:1019D0008D859E850E944F0F8AE591E00E94220826
:1019E0008091BB059091BC05009719F4DA82C982F9
:1019F00005C09701281B390B3A83298389819A8175
:101A00000E94750868EE73E080E090E00E948A0909
:101A10000E941405F8CEEBEFF4E01382128288EEF8
:101A200093E0A0E0B0E084839583A683B7838DE242
:101A300091E09183808385EC90E09587848784ECA6
:101A400090E09787868780EC90E0918B808B81EC8B
:101A500090E0938B828B82EC90E0958B848B86EC6C
:101A600090E0978B868B118E128E138E148EE8E980
:101A7000F5E08FEF808312821182148613868FEF38
:101A80009FEFDC0187839087A187B287E5EAF5E0C5
:101A900011821082138212821582148240E050E07B
:101AA0006DE371E0CF010C94F706DB018F939F93F8
:101AB0000E94E70FBF91AF91A29F800D911DA39F40
:101AC000900DB29F900D1124089597FB072E16F4E8
:101AD000009407D077FD09D00E94C10D07FC05D006
:101AE0003EF4909581959F4F0895709561957F4F35
:101AF0000895A1E21A2EAA1BBB1BFD010DC0AA1F4F
:101B0000BB1FEE1FFF1FA217B307E407F50720F066
:101B1000A21BB30BE40BF50B661F771F881F991FE1
:101B20001A9469F760957095809590959B01AC012A
:101B3000BD01CF010895052E97FB1EF400940E946D
:101B4000B20D57FD07D00E94790D07FC03D04EF46B
:101B50000C94B20D50954095309521953F4F4F4FC5
:101B60005F4F089590958095709561957F4F8F4F49
:101B70009F4F08950E942910B7FF0895821B930B71
:101B80000895AA1BBB1B51E107C0AA1FBB1FA617C4
:101B9000B70710F0A61BB70B881F991F5A95A9F716
:101BA00080959095BC01CD010895EE0FFF1F059023
:101BB000F491E02D0994A0E0B0E0E1EEFDE00C949A
:101BC000F60FEC01009721F4CB010E94BA0EB8C0C9
:101BD000FC01E60FF71F9C0122503109E217F307C1
:101BE00008F4ACC0D9010D911C9111970617170785
:101BF000B0F00530110508F49FC0C801049786179E
:101C0000970708F499C002501109061B170B01939E
:101C100011936D937C93CF010E944F0F8DC05B0198
:101C2000A01AB10A4C01800E911EA091BD05B09181
:101C3000BE0540E050E0E12CF12C109709F44AC0B9
:101C4000A815B905D1F56D907C901197630182E0DC
:101C5000C80ED11CCA14DB0480F1A3014A195B0928
:101C60006A0182E0C80ED11C1296BC90129713969E
:101C7000AC91B5E0CB16D10440F0B282A38351837E
:101C80004083D9016D937C930AC00E5F1F4FC3013F
:101C9000800F911FF90191838083EB2DFA2FE114BE
:101CA000F10431F0D7011396FC93EE93129744C0E0
:101CB000F093BE05E093BD053FC08D919C911197B7
:101CC0004817590708F4AC017D0112960D90BC919C
:101CD000A02DB3CF8091BB059091BC0588159905C7
:101CE000E1F446175707C8F4809101019091020171
:101CF000009741F48DB79EB74091050150910601C0
:101D0000841B950BE817F907C8F4F093BC05E09322
:101D1000BB05F901718360830FC0CB010E94BA0E2D
:101D20007C01009759F0A801BE010E94AA0ECE01C5
:101D30000E944F0FC70104C0CE0102C080E090E0B6
:101D4000CDB7DEB7EEE00C94121081E090E0F8948D
:101D50000C943810FB01DC0102C001900D9241503F
:101D60005040D8F70895FB01DC0101900D9200204E
:101D7000E1F70895CF93DF938230910510F482E06C
:101D800090E0E091BD05F091BE0520E030E0C0E0BC
:101D9000D0E0309711F14081518148175907C0F0C8
:101DA0004817590761F482819381209719F09B832A
:101DB0008A832BC09093BE058093BD0526C0211554
:101DC000310519F04217530718F49A01BE01DF01DB
:101DD000EF010280F381E02DDCCF2115310509F1FF
:101DE000281B390B2430310590F412968D919C916B
:101DF00013976115710521F0FB019383828304C061
:101E00009093BE058093BD05FD01329644C0FD014F
:101E1000E20FF31F81939193225031092D933C934C
:101E20003AC02091BB053091BC05232B41F4209191
:101E30000301309104013093BC052093BB05209130
:101E40000101309102012115310541F42DB73EB752
:101E50004091050150910601241B350BE091BB0513
:101E6000F091BC05E217F307A0F42E1B3F0B2817D7
:101E7000390778F0AC014E5F5F4F2417350748F003
:101E80004E0F5F1F5093BC054093BB058193919308
:101E900002C0E0E0F0E0CF01DF91CF9108950F9311
:101EA0001F93CF93DF93009709F48CC0FC01329706
:101EB000138212820091BD051091BE050115110516
:101EC00081F420813181820F931F2091BB053091D5
:101ED000BC052817390779F5F093BC05E093BB05DD
:101EE00071C0D80140E050E0AE17BF0750F4129621
:101EF0002D913C911397AD012115310509F1D901BF
:101F0000F3CF9D01DA013383228360817181860FD3
:101F1000971F8217930769F4EC0128813981260FF6
:101F2000371F2E5F3F4F318320838A819B819383AC
:101F30008283452B29F4F093BE05E093BD0542C092
:101F40001396FC93EE931297ED01499159919E01DE
:101F5000240F351FE217F30771F480819181840FFC
:101F6000951F029611969C938E938281938113966E
:101F70009C938E931297E0E0F0E0D80112968D9139
:101F80009C911397009719F0F8018C01F6CF8D9171
:101F90009C9198012E5F3F4F820F931F2091BB05AC
:101FA0003091BC052817390769F4309729F410924D
:101FB000BE051092BD0502C0138212821093BC05AB
:101FC0000093BB05DF91CF911F910F9108950E945F
:101FD0002910A59F900DB49F900DA49F800D911D79
:101FE000112408952F923F924F925F926F927F92A9
:101FF0008F929F92AF92BF92CF92DF92EF92FF9219
:102000000F931F93CF93DF93CDB7DEB7CA1BDB0BC4
:102010000FB6F894DEBF0FBECDBF09942A88398869
:1020200048885F846E847D848C849B84AA84B98470
:10203000C884DF80EE80FD800C811B81AA81B9817C
:10204000CE0FD11D0FB6F894DEBF0FBECDBFED0190
:102050000895A29FB001B39FC001A39F700D811D81
:102060001124911DB29F700D811D1124911D0895A1
:1020700011E0C1E2D1E004C0FE010E94D50D21961D
:0A208000C232D107C9F7F894FFCF70
:10208A00010000BF05800000000000ED05ED05ED30
:10209A00055A0256025302000000001002CC01CA7F
:1020AA00015A025602C7017E0200000000F905C269
:1020BA00056E014C01600140063A000D0A006C6190
:1020CA0072676F20537472696E673A2000444546FE
:1020DA0041554C54205445585400667265654D6507
:0820EA006D6F727928293D0099
:00000001FF
