:100000001BC200004AC2000048C2000046C20000F5
:1000100044C2000042C2000040C200003EC20000D4
:100020003CC200002FC600002DC600002BC60000F9
:1000300034C2000032C2000030C200002EC20000F4
:100040002CC200002AC2000028C2000026C2000004
:1000500024C2000022C2000020C200000C94F60856
:100060001CC200000C94590A0C94300A16C20000FD
:1000700014C2000012C2000010C200000EC2000034
:100080000CC200000AC2000008C2000006C2000044
:1000900004C2000002C2000000C20000FEC1000055
:1000A000FCC10000FAC10000F8C10000F6C1000068
:1000B000F4C10000F2C10000F0C10000EEC1000078
:1000C000ECC10000EAC10000E8C10000E6C1000088
:1000D000E4C10000E2C10000E0C10000DEC1000098
:1000E000DCC10000BD0AC00AAF0AB30AB70AF70AAA
:1000F000C40AC80ACE0AD20AD60ADC0AE00AE40A0E
:10010000F70AEA0AEE0AF20A667265654D656D6FD6
:10011000727928293D00496E20636F6E66696775A4
:10012000726174696F6E206D6F6465006C617267D7
:100130006520537472696E673A200000000A0B0252
:10014000090C0D0E08070304010000000000000068
:10015000000000000000000000000000000000009F
:10016000000000000000001211100000000000005C
:10017000000000000000000000000000000000007F
:10018000000000000000000000000000DEDE0000B3
:100190000000080E06080E06002828FE28FE282863
:1001A00000485C54FE54742400466630180C6662A5
:1001B0000000000000000000000000080E06000023
:1001C000000000007CFE8200000082FE7C00000037
:1001D00000002A1C3E1C2A00000010107C7C10101D
:1001E00000000080E06000000000101010101000FF
:1001F000000000C0C000000000C06030180C060005
:10020000007CFE828282FE7C00000004FEFE000074
:1002100000C4E6A2B2929E8C0044C6929292FE6CFA
:100220000030382C26FEFE20004ECE8A8A8AFA72D2
:100230000078FC969292F260000202E2F21A0E0638
:10024000006CFE929292FE6C000C9E9292D27E3CCA
:100250000000006C6C000000000080E666000000FA
:10026000000010386CC682000000282828282828A2
:10027000000082C66C381000000406A2B2121E0CE8
:10028000007CFE82BAAA3E3C00F8FC262626FCF83A
:1002900000FEFE929292FE6C00387CC68282C644BA
:1002A00000FEFE8282C67C3800FEFE92929282821E
:1002B00000FEFE121212020200387CC682A2E6E4A0
:1002C00000FEFE101010FEFE00000000FEFE00000A
:1002D0000060E0808080FE7E00FEFE10386CC6C6A6
:1002E00000FEFE808080808000FEFE1C381CFEFE2A
:1002F00000FEFE0C1830FEFE007CFE828282FE7C38
:1003000000FEFE1212121E0C003C7E4262E2FEBC97
:1003100000FEFE121232FECC004CDE9A92B2F6645F
:10032000000606FEFEFE0606007EFEC08080FEFE83
:10033000003E7EE0C0E07E3E00FEFE603060FEFEDD
:1003400000C6EE7C387CEEC600000E1EF0F01E0EDD
:100350000082C2E2B29A8E860000002200250028A8
:10036000002B002E003100340002010000050108BE
:10037000010B0100002100240027002A002D00307D
:1003800000330001010000040107010A0100002000
:10039000002300260029002C002F0032000001005D
:1003A0000003010601090105050505070508080800
:1003B00008020202020A0A080804040404010101F6
:1003C00001010101010303030303030303040707FE
:1003D000070C0C0C0C0C0C0C0C020202020606069C
:1003E00006060606060B0B0B0B0B0B0B0B01021084
:1003F000202008081020401020408002010201083F
:1004000004020101020408102040808040201008EE
:100410000402018004020180402010080402010847
:1004200004020101020408102040800102040810A7
:10043000204080006F10810D11241FBECFEFD1E24C
:10044000DEBFCDBF00E00CBF12E0A0E0B2E0ECE008
:10045000FBE200E00BBF02C007900D92A638B10787
:10046000D9F72BE0A6E8B2E001C01D92A539B2078A
:10047000E1F712E0CBE1D2E000E006C021970109EC
:10048000802FFE010E94B111CA31D10780E0080718
:10049000A9F70E94AD0D0C947515B2CD2091CA023A
:1004A0003091CB022817390769F48091C802209156
:1004B000C90290E0805C9F4F821B910960E470E06C
:1004C0000C94821180E090E008952091CA0230914E
:1004D000CB0228173907B9F49091C9028091C8025C
:1004E000981789F0E091C902F0E0E857FD4F80814C
:1004F0002091C90230E02F5F3F4F2F7333272093A5
:10050000C90290E008958FEF9FEF0895EF92FF9258
:100510000F931F93CF93DF93EC01909187029F5F1E
:10052000292F27702093870290FF02C090E801C016
:1005300090E021FD9064247009F0906220E1290F81
:10054000FE013C967E018FE0E80EF11C00E011E018
:100550006191662331F070E0C8010E9482116F5FE3
:1005600001C060E0DF0114976C93322F369F030EB9
:1005700030E0311D1124CF010797311103C0EC0188
:10058000188203C03150EC013883662311F06150AA
:100590006C93EE15FF05E1F6DF91CF911F910F915E
:1005A000FF90EF90089580E991E008956D9A089585
:1005B0000F931F93CF93DF93CDB7DEB762970FB63C
:1005C000F894DEBF0FBECDBF8C01F901DC011C9693
:1005D0008C917A8369835C834B835E834D839081A6
:1005E0009D8791819E8792819F87813021F4CE01E2
:1005F00001968CDF06C01C861B861A861986188613
:100600001F8283E0888B1A8A198AD801ED91FC91A8
:100610000484F585E02DBE016F5F7F4FC8011995F9
:1006200062960FB6F894DEBF0FBECDBFDF91CF91BB
:100630001F910F9108950F931F93CF93DF93CDB721
:10064000DEB762970FB6F894DEBF0FBECDBF8C0148
:10065000F901DC011C968C917A8369835C834B835E
:100660005E834D8390819D8791819E8792819F8734
:10067000813021F4CE01019649DF06C01C861B861D
:100680001A86198618861F82188A1A8A198AD8012A
:10069000ED91FC910484F585E02DBE016F5F7F4FE5
:1006A000C801199562960FB6F894DEBF0FBECDBF94
:1006B000DF91CF911F910F91089580E090E0089510
:1006C000FC01858596850895CF93DF9300D000D0F7
:1006D000CDB7DEB7AB011C821D821E82DC01ED911D
:1006E000FC910190F081E02D19821A821B829E01FB
:1006F0002F5F3F4FBE016C5F7F4F199526960FB657
:10070000F894DEBF0FBECDBFDF91CF9108954F9219
:100710005F926F927F928F92AF92BF92CF92EF9241
:10072000FF920F931F93CF93DF933C01EB0139D5D9
:10073000F30127853089621B730B6A307105B8F3AA
:10074000F894E881F9815EB150628EB18F7D8EB9E7
:100750006A859F81262F291B922F2F83BF844A8071
:100760005B807D85FC84EE847F5FF394E3943E811F
:100770004885A984CB841181D20120E0C32F022FA8
:10078000322F3181112788943111390F08F43FEF4E
:100790009195889470FD130F1795889471FD130F30
:1007A0001795889472FD130F1795889473FD130F96
:1007B0001795889474FD130F1795889475FD130F82
:1007C0001795889476FD130F1795889477FD130F6E
:1007D00017958894232F7111212F960F122F002C1B
:1007E0005EB900C017FF8EB930812227889400C0FF
:1007F00000C0002C8EB931113C0F00C0002C5EB936
:1008000000C016FF8EB908F43FEFC195889400C070
:1008100000C0002C8EB9F0FC230F00C0002C5EB984
:1008200000C015FF8EB927958894F1FC230F00C0F6
:1008300000C0002C8EB92795889400C0002C5EB9AA
:1008400000C014FF8EB9F2FC230F2795889400C0D6
:1008500000C0002C8EB9F3FC230F00C0002C5EB941
:1008600000C013FF8EB927958894F4FC230F00C0B5
:1008700000C0002C8EB92795889400C0002C5EB96A
:1008800000C012FF8EB9F5FC230F2795889400C095
:1008900000C0002C8EB9F6FC230F00C0002C5EB9FE
:1008A00000C011FF8EB927958894F7FC230F00C074
:1008B00000C0002C8EB92795889400C0002C5EB92A
:1008C00000C010FF8EB9132FF110122FCA0D00C0F7
:1008D00000C0002C8EB900C000C0002C5EB900C062
:1008E00017FF8EB932812227889400C000C0002CE7
:1008F0008EB93111340F00C0002C5EB900C016FF54
:100900008EB908F43FEFEB0DF11D00C000C0002CC4
:100910008EB9E0FC230F00C0002C5EB900C015FFAB
:100920008EB927958894E1FC230F00C000C0002CED
:100930008EB92795889400C0002C5EB900C014FFC2
:100940008EB9E2FC230F2795889400C000C0002CCC
:100950008EB9E3FC230F00C0002C5EB900C013FF6A
:100960008EB927958894E4FC230F00C000C0002CAA
:100970008EB92795889400C0002C5EB900C012FF84
:100980008EB9E5FC230F2795889400C000C0002C89
:100990008EB9E6FC230F00C0002C5EB900C011FF29
:1009A0008EB927958894E7FC230F00C000C0002C67
:1009B0008EB92795889400C0002C5EB900C010FF46
:1009C0008EB9132FE110122F419500C000C0002CEA
:1009D0008EB94C0D00C000C05EB900C017FF8EB9C3
:1009E00031812227889400C000C0002C8EB93111BB
:1009F000390F00C0002C5EB900C016FF8EB908F494
:100A00003FEF9195889400C000C0002C8EB970FD16
:100A1000230F00C0002C5EB900C015FF8EB92795CA
:100A2000889471FD230F00C000C0002C8EB927955B
:100A3000889400C0002C5EB900C014FF8EB972FD0E
:100A4000230F2795889400C000C0002C8EB973FD39
:100A5000230F00C0002C5EB900C013FF8EB927958C
:100A6000889474FD230F00C000C0002C8EB9279518
:100A7000889400C0002C5EB900C012FF8EB975FDCD
:100A8000230F2795889400C000C0002C8EB976FDF6
:100A9000230F00C0002C5EB900C011FF8EB927954E
:100AA000889477FD230F00C000C0002C8EB92795D5
:100AB000889400C0002C5EB900C010FF8EB9132FBF
:100AC0007111122F960F00C000C0002C8EB9119723
:100AD00009F086CE20EE31E0D2010E94B911DC018E
:100AE000CB01F4E0B695A79597958795FA95D1F740
:100AF00020E030E0A9016AE9469E412D569E400D56
:100B0000511D1124840F951FA11DB11D893E43E085
:100B10009407A105B10588F1885E9340A109B10948
:100B200042E0B695A795979587954A95D1F747E006
:100B3000849F212D949F200D311D112460918602E8
:100B400070E0860F971F820F931F4091970A509174
:100B5000980A6091990A70919A0A292F3327420FB7
:100B6000531F611D711D4093970A5093980A60931B
:100B7000990A70939A0A80938602789412D3F301AB
:100B8000708B6787DF91CF911F910F91FF90EF904E
:100B9000CF90BF90AF908F907F906F905F904F906D
:100BA0000895DF92EF92FF920F931F93CF93DF93FD
:100BB00000D000D0CDB7DEB78091CC0281112BC020
:100BC0008BE99AE0AFD1892B49F08BE99AE088D183
:100BD0008D30B1F38A30A1F36ED6F2CF63E67BE0BD
:100BE000CE01019610D481E08093CC02CE01019613
:100BF00005D48091CC028823B9F18FE492E0A7D587
:100C000082E592E0A4D540E050E064E572E083E63E
:100C10009BE0CAD329C000E010E0DD24D3948BE927
:100C20009AE080D1892B01F18BE99AE059D18D307E
:100C300011F08A3029F4D092CD021092CC020EC06D
:100C400098012F5F3F4F7901063011052CF4F80110
:100C5000E050FE4F808301C02ED6870162E070E035
:100C600080E090E058D6DBCF26960FB6F894DEBF32
:100C70000FBECDBFDF91CF911F910F91FF90EF90ED
:100C8000DF9008951F920F920FB60F9211240BB6AA
:100C90000F922F933F934F935F936F937F938F9315
:100CA0009F93AF93BF93EF93FF93E091CA02F091AC
:100CB000CB02309709F451C0968DA685B7858585FE
:100CC00091FF04C09C91892329F447C09C918923FA
:100CD00009F043C0A389B4899C91858980958923B3
:100CE0008C93868997890197F1F7608D718DA68520
:100CF000B785558538E020E0CB010197F1F7822FC9
:100D000090E095958795282F4C91452309F0206810
:100D1000315091F7868D81FD20958091C80290E039
:100D200001968F7399273091C902381749F0A09125
:100D3000C802B0E0A857BD4F2C938093C80203C0EF
:100D4000868D8160868F828D938D0197F1F7A389BF
:100D5000B4899C918589892B8C93FF91EF91BF91E8
:100D6000AF919F918F917F916F915F914F913F9143
:100D70002F910F900BBE0F900FBE0F901F901895E4
:100D8000EF92FF920F931F93CF93DF93EC017B01C0
:100D900000E010E000FD03C065E572E002C067E519
:100DA00072E0C701CDD20F5F1F4F0630110591F7DA
:100DB000198218821B821A821D821C82B701CE0101
:100DC0005FD2CE01DF91CF911F910F91FF90EF90F5
:100DD00008954F925F926F927F92AF92BF92CF929F
:100DE000DF92EF92FF920F931F93CF93DF93FC015B
:100DF0001082118212824423B9F18B01075F1F4FC9
:100E00005C01EB012C96442E512C612C712CD801E5
:100E10001397CC90D8012D918D01CC20F9F022238D
:100E2000E9F0822F90E0A0E0B0E09C01AD012F5FDF
:100E30003F4F4F4F5F4FC301B2010E942B159B01E3
:100E4000AC01D12CE12CF12CC701B6016F5F7F4FB3
:100E50008F4F9F4F0E942B15D5018C93BFEFAB1A7C
:100E6000BB0A0C171D0799F6CF01DF91CF911F9197
:100E70000F91FF90EF90DF90CF90BF90AF907F9059
:100E80006F905F904F9008950895CF92DF92EF9208
:100E9000FF920F931F93CF93DF936C017A018B0125
:100EA000C0E0D0E0CE15DF0589F0D8016D918D014D
:100EB000D601ED91FC910190F081E02DC6011995CC
:100EC000892B11F47E0102C02196ECCFC701DF917E
:100ED000CF911F910F91FF90EF90DF90CF900895E9
:100EE000FC01918D828D981761F0828DDF01A80F32
:100EF000B11D5D968C91928D9F5F9F73928F90E054
:100F000008958FEF9FEF0895FC01918D828D9817C2
:100F100031F0828DE80FF11D858D90E008958FEFFF
:100F20009FEF0895FC01918D228D892F90E0805CC8
:100F30009F4F821B91098F73992708958BE99AE03F
:100F4000F1DF21E0892B09F420E0822F0895FC01D4
:100F5000848DDF01A80FB11DA35ABF4F2C91848D42
:100F600090E001968F739927848FA689B7892C9377
:100F7000A089B1898C9180648C93938D848D981312
:100F800006C00288F389E02D80818F7D80830895DB
:100F9000EF92FF920F931F93CF93DF93EC0181E0C9
:100FA000888F9B8D8C8D981305C0E889F989808185
:100FB00085FD23C0F62E0B8D10E00F5F1F4F0F73C2
:100FC0001127E02E8C8DE8120BC00FB607FCFACF6C
:100FD000E889F989808185FFF5CFCE01B8DFF2CFAE
:100FE0008B8DFE01E80FF11DE35AFF4FF0820B8F4E
:100FF000EA89FB898081806207C0EE89FF8960836E
:10100000E889F98980818064808381E090E0DF91C4
:10101000CF911F910F91FF90EF900895CF93DF93A1
:10102000EC01888D8823C1F0EA89FB89808185FDE8
:1010300005C0A889B9898C9186FD0EC00FB607FC42
:10104000F5CF808185FFF2CFA889B9898C9185FF82
:10105000EDCFCE017CDFE8CFDF91CF9108956EDF39
:10106000811125C080E090E0892B41F080E090E084
:10107000892B21F00E94000081111BC080E090E0CC
:10108000892B41F080E090E0892B21F00E94000044
:10109000811112C080E090E0892B99F080E090E00F
:1010A000892B79F00E940000811109C0089579DD33
:1010B000D9CF0E940000E2CF0E940000EBCF0C9439
:1010C000000008952091CA023091CB0228173907F9
:1010D00071F49091C9028091C802981741F0E09193
:1010E000C902F0E0E857FD4F808190E008958FEF4E
:1010F0009FEF089508951F93CF93DF93DC015C96D3
:101100002D913C915D972115310539F481E090E0F6
:1011100013969C938E9312973DC05196ED91FC913E
:10112000529750969C915097892F80951FB75E9645
:101130004C915E9741FB772770F941FD6095F894DB
:101140004081772311F0492B01C048234083E901F6
:101150002197F1F748E0508160FF02C0592B01C090
:1011600058235083E9012197F1F76695415099F78B
:10117000772321F090818923808303C08081982B7D
:1011800090831FBF5C968D919C915D970197F1F7BD
:1011900021E030E0C901DF91CF911F9108950E94B5
:1011A000B7123FB7F8948091ED029091EE02A091B2
:1011B000EF02B091F00226B5A89B05C02F3F19F0B1
:1011C0000196A11DB11D3FBFBA2FA92F982F8827C7
:1011D000820F911DA11DB11DBC01CD0142E0660F22
:1011E000771F881F991F4A95D1F708951F920F9274
:1011F0000FB60F9211242F933F938F939F93AF932A
:10120000BF938091970A9091980AA091990AB09102
:101210009A0A3091EC0223E0230F2D3720F4019637
:10122000A11DB11D05C026E8230F0296A11DB11D09
:101230002093EC028093970A9093980AA093990ABE
:10124000B0939A0A8091ED029091EE02A091EF0284
:10125000B091F0020196A11DB11D8093ED02909313
:10126000EE02A093EF02B093F002BF91AF919F9175
:101270008F913F912F910F900FBE0F901F90189557
:101280000F931F93CF93DF938C01EB01FC018081BF
:1012900091810097B1F0688179816115710579F0CC
:1012A000428153812C813D814217530740F00E94B7
:1012B000C4128C819D81F8019583848313C00E94A0
:1012C000601388819981F801918380838A819B8151
:1012D000938382838C819D81958384831982188274
:1012E0001B821A821D821C82DF91CF911F910F9168
:1012F00008950F931F93CF93DF93EC018881998119
:10130000009729F02A813B812617370788F48B0143
:101310006F5F7F4F0E94D311009761F0998388839C
:101320001B830A832C813D81232B11F4FC01108245
:1013300081E001C080E0DF91CF911F910F9108956E
:10134000EF92FF920F931F93CF93DF936115710577
:1013500011F480E022C0FB0101900020E9F73197F1
:10136000E61BF70BDC0114960D911C911597309735
:1013700099F07B01EC010E0F1F1FB801BADF882323
:1013800041F3288139818C819D81B701820F931FA0
:101390000E94C4121D830C8381E0DF91CF911F91C5
:1013A0000F91FF90EF900895EF92FF920F931F938C
:1013B000CF93DF93EC017B018A01BA019ADF288188
:1013C000398181110DC02115310519F0C9010E9423
:1013D0006013198218821D821C821B821A8206C029
:1013E0001D830C83B701C9010E94C412CE01DF9195
:1013F000CF911F910F91FF90EF900895FC01808194
:1014000091810C946013FB01DC0111961C921E92D9
:1014100013961C921E92129715961C921E92149768
:101420008617970741F0608171816115710519F088
:1014300044815581B9CF0895FC0111821082138235
:101440001282158214826115710549F0FB01019029
:101450000020E9F73197AF01461B570BA5CF089540
:101460001F920F920FB60F9211240BB60F922F936B
:101470003F934F935F936F937F938F939F93AF931C
:10148000BF93EF93FF938BE99AE061DDFF91EF91BA
:10149000BF91AF919F918F917F916F915F914F918C
:1014A0003F912F910F900BBE0F900FBE0F901F908A
:1014B00018951F920F920FB60F9211240BB60F9230
:1014C0002F938F939F93EF93FF93E091AB0AF0914B
:1014D000AC0A8081E091B10AF091B20A82FD12C09B
:1014E00090818091B40A8F5F8F732091B50A821723
:1014F00051F0E091B40AF0E0E556F54F958F8093F6
:10150000B40A01C08081FF91EF919F918F912F913B
:101510000F900BBE0F900FBE0F901F901895362F97
:1015200090E0FC01E55CFE4F4491FC01E351FC4F6F
:101530002491FC01E955FC4F9491992309F46AC068
:10154000442309F454C050E0FA013197E231F10527
:1015500008F04DC08827EE58FF4F8F4F02C780918B
:1015600080008F7707C0809180008F7D03C08091BD
:101570008000877F809380003AC084B58F7702C057
:1015800084B58F7D84BD33C08091B0008F7703C058
:101590008091B0008F7D8093B00029C08091900031
:1015A0008F7707C0809190008F7D03C0809190005D
:1015B000877F809390001BC08091A0008F7707C029
:1015C0008091A0008F7D03C08091A000877F8093D1
:1015D000A0000DC0809120018F7707C0809120016D
:1015E0008F7D03C080912001877F80932001E92FA8
:1015F000F0E0EE0FFF1FE75AFC4FA591B4918FB7B3
:10160000F894EC91311103C020952E2301C02E2BAC
:101610002C938FBF0895CF92DF92EF92FF920F939A
:101620001F9380918D0B90918E0B9C012F5F3F4FEC
:1016300030938E0B20938D0B49970CF447C08FB7D6
:10164000F8940091970A1091980A2091990A309184
:101650009A0A8FBFE0918D0BF0918E0B88EE93E08C
:10166000E89FB001E99F700DF89F700D1124072EBF
:10167000000C880B990BC090890BD0908A0BE090DE
:101680008B0BF0908C0BA90198012C193D094E0988
:101690005F090E943A1530933A0B2093390B109250
:1016A0008E0B10928D0B2FB7F8948091970A909122
:1016B000980AA091990AB0919A0A2FBF8093890B3A
:1016C00090938A0BA0938B0BB0938C0B1F910F916F
:1016D000FF90EF90DF90CF900895CF93DF93A0E03D
:1016E0002A2F30E0FC01448155812417350760F52D
:1016F000EC01E881F981309729F41092880BE8E831
:10170000FBE002C0E20FF31F6081605243E0220F52
:10171000331F4A95E1F7D8E06D9FB001112440E0F6
:1017200050E0FA01E60FF71FEF57FE4FE491EA0190
:10173000C20FD31FC958D84FE8834F5F5F4F48305F
:10174000510579F7AF5FCCCFDF91CF910895009726
:1017500061F0FC0101900020E9F73197AF01481BCF
:10176000590BBC018BE99AE090CB80E090E00895A2
:101770008F929F92AF92BF920F931F93CF93DF935D
:10178000CDB7DEB7A1970FB6F894DEBF0FBECDBFC1
:1017900019A2423008F44AE08E010F5D1F4F842EDB
:1017A000912CA12CB12CA50194010E943A15E62F91
:1017B000B901CA0101501109EA3014F4E05D01C019
:1017C000E95CD801EC93232B242B252B61F7C8016E
:1017D000BEDFA1960FB6F894DEBF0FBECDBFDF917E
:1017E000CF911F910F91BF90AF909F908F900895D0
:1017F000CF92DF92EF92FF92CF93DF936C01990F1C
:10180000EE08FF08F7FE19C0E0919B0AF0919C0AD0
:101810000190F081E02D6DE28BE99AE01995EC01E1
:1018200066277727CB016C197D098E099F094AE04D
:101830009FDF7C01EC0EFD1E05C04AE0C701B6012A
:1018400097DF7C0182E592E082DF8E0D9F1DDF91A4
:10185000CF91FF90EF90DF90CF9008950F931F935B
:10186000CF93DF938C01C0E0D0E0F801EC0FFD1FB7
:101870006491662371F0E0919B0AF0919C0A0190BB
:10188000F081E02D8BE99AE01995892B11F02196D2
:10189000ECCFCE01DF91CF911F910F91089520E001
:1018A000DC0160FF03C001C02D932D936250E0F76F
:1018B0007040D0F708950F931F93CF93DF931F923B
:1018C0001F92CDB7DEB789831A820091670B109102
:1018D000680B0F5F1F4FB80183E69BE00ADD88238A
:1018E00099F02091630B3091640B8091670B90917C
:1018F000680BBE016F5F7F4F820F931F45D6109319
:10190000680B0093670B81E00F900F90DF91CF91F0
:101910001F910F9108958F929F92AF92BF92CF9295
:10192000DF92EF92FF926B017C013BDC4B015C018B
:10193000C114D104E104F104E9F033DCDC01CB0192
:1019400088199909AA09BB09883E9340A105B105E8
:1019500078F321E0C21AD108E108F10888EE880E78
:1019600083E0981EA11CB11CC114D104E104F10450
:1019700021F7DECFFF90EF90DF90CF90BF90AF9038
:101980009F908F900895CF92DF92EF92FF920F93E6
:101990001F93CF93DF9300D0CDB7DEB707EF12E0F0
:1019A000DA01A958B84F97E00737190711F1ED9000
:1019B000F12C40E050E020E030E0F801E40FF51FAA
:1019C0006701022E01C0CC0C0A94EAF7C7FE04C0DE
:1019D00080837183628303C01082118212822F5F21
:1019E0003F4F4D5F5F4F2830310539F7085E1F4F7D
:1019F000DACFF090380B80913B0B90913C0BA0918B
:101A00003D0BB0913E0B892B8A2B8B2BE1F0C9DB70
:101A10000091F3021091F4022091F5023091F60248
:101A2000DC01CB01801B910BA20BB30B00913B0B94
:101A300010913C0B20913D0B30913E0B801791078C
:101A4000A207B307C0F2ADDB6093F3027093F40218
:101A50008093F5029093F602E091430BF091440BD2
:101A6000309759F040913F0B5091400B6091410BE2
:101A70007091420B8F2D1995F82E0091F102109163
:101A8000F2020115110559F1D8011C96EC901C9732
:101A90008091390B90913A0B8436910510F41C9685
:101AA0001C92D801ED91FC91C280D3804F2DB801DA
:101AB000CE0101968ED9F8014585568562817381E4
:101AC0009E012F5F3F4FC801F6011995D8011C9662
:101AD000EC921C9714960D911C911597D2CF9BDD1B
:101AE00068EC70E080E090E016DF0F900F900F90B0
:101AF000DF91CF911F910F91FF90EF90DF90CF90EA
:101B00000895CF93DF93C3E6DBE02697CE0176DC22
:101B10008BE0C534D807C9F783E69BE06FDC83E42C
:101B200092E090936A0B8093690B8091CA02909126
:101B3000CB0289569B4071F4E0917C0BF0917D0BB8
:101B4000908180917E0B8095892380831092CB02B7
:101B50001092CA02DF91CF910895CF93DF93CDB752
:101B6000DEB762970FB6F894DEBF0FBECDBF789494
:101B700084B5826084BD84B5816084BD85B5826092
:101B800085BD85B5816085BD80916E008160809343
:101B90006E001092810080918100826080938100AC
:101BA00080918100816080938100809180008160BC
:101BB000809380008091B10084608093B100809117
:101BC000B00081608093B00080919100826080932A
:101BD00091008091910081608093910080919000AC
:101BE0008160809390008091A10082608093A10029
:101BF0008091A10081608093A1008091A00081600C
:101C00008093A000809121018260809321018091C6
:101C10002101816080932101809120018160809366
:101C2000200180917A00846080937A0080917A000C
:101C3000826080937A0080917A00816080937A003C
:101C400080917A00806880937A001092C100E091C0
:101C5000AB0AF091AC0A82E08083E091A70AF09190
:101C6000A80A1082E091A90AF091AA0A8FEC808359
:101C70001092B30AE091AF0AF091B00A86E0808337
:101C8000E091AD0AF091AE0A808180618083E0919D
:101C9000AD0AF091AE0A808188608083E091AD0A40
:101CA000F091AE0A808180688083E091AD0AF09166
:101CB000AE0A80818F7D80838091E102811145C0D1
:101CC0001092D3021092D2028FEF8093D6028093AB
:101CD000D7028093D8028093D9028093DA0280934E
:101CE000DB0281E08093DC021092DE021092DD02C2
:101CF0001092D5021092D4028091F1029091F202DA
:101D0000892B31F480ED92E09093F2028093F102FE
:101D1000E091CE02F091CF02309721F080ED92E079
:101D20009583848380ED92E09093CF028093CE02DE
:101D30001092E0021092DF0281E292E09093D102D1
:101D40008093D00281E08093E102E091D002F09193
:101D5000D1020480F581E02D80ED92E0199587EFA6
:101D600092E09093D3028093D20280E891E0909326
:101D7000DE028093DD02E091D002F091D102028474
:101D8000F385E02D80ED92E01995009721F19C01FB
:101D900040E050E060E472E48FE090E0C6D2722F41
:101DA000632F00913B0B10913C0B20913D0B309128
:101DB0003E0B872F962FDA0180179107A207B307F2
:101DC00010F4D901C80180933B0B90933C0BA09376
:101DD0003D0BB0933E0BBB24B3948E010F5F1F4F9E
:101DE000980125593B406901B092380B8091CD0292
:101DF000882309F49EC01F821886198680913B0BA8
:101E000090913C0BA0913D0BB0913E0B892B8A2BFE
:101E10008B2BE1F0C6D94090F3025090F402609011
:101E2000F5027090F602DC01CB0184199509A60930
:101E3000B70940903B0B50903C0B60903D0B70906D
:101E40003E0B84159505A605B705C0F2AAD9609387
:101E5000F3027093F4028093F5029093F602E091FE
:101E6000430BF091440B309709F437C140913F0B7D
:101E70005091400B6091410B7091420B80E019959D
:101E8000982EE090F102F090F202E114F10409F0D2
:101E9000E7C0C1DBE090F102F090F202E114F1043E
:101EA00009F008C14091670B5091680B6091630B7A
:101EB0007091640B8BE99AE00E94450782E592E0FD
:101EC00046DC8CE291E0CADC6091670B7091680B94
:101ED00080E090E04AE04CDC82E592E038DC109251
:101EE000CD02B092EB0263E67BE0CE0107968BDA7F
:101EF000BE01695F7F4FC8010E94C006B80183E63A
:101F00009BE0BED9C8017ADACE01079677DA83E67C
:101F10009BE0E3DB8091670B9091680B9093EA0262
:101F20008093E90240E050E064E572E083E69BE0E4
:101F30003BDA9091EB028091CC02992339F1811127
:101F40006EC0E090E902F090EA02B6E0EB1AF10808
:101F500093E0EE0CFF1C9A95E1F7C70149DC40E1E4
:101F600050E060E070E080E092E042D42B013C0160
:101F7000812C912C8E149F040CF05CC0A401C30131
:101F8000B20101DDEFEF8E1A9E0AF4CF811147C036
:101F900069E572E0CE010D964FDA40E150E060E075
:101FA00070E080E092E024D42B013C01BE01635F2D
:101FB0007F4FCE01079627DABE01695F7F4FC801C8
:101FC0000E94C006B801CE010D965AD9C80116DA92
:101FD000CE01079613DACE010D967FDBE988FA88E9
:101FE000F092EA02E092E902F6E0EF1AF10883E0EB
:101FF000EE0CFF1C8A95E1F7C701FADB812C912CCE
:102000008E149F0444F4A401C301B201BCDC2FEF81
:10201000821A920AF5CFCE010D96F0D90BC086E157
:1020200091E01CDC82E592E092DB68EE73E080E0F8
:1020300090E071DC88E091E011DC80918F0B909151
:10204000900B009719F4DA82C98205C0D801A81B49
:10205000B90BBA83A98389819A81CADB00D8C4CE1F
:10206000D7011C968C901C978091390B90913A0B5C
:102070008436910510F41C961C92D701ED91FC91C9
:1020800060807180492DB701C8010E94E906F701FF
:10209000458556859801BE01695F7F4FC701F301F1
:1020A0001995D7011C968C921C971496ED90FC9074
:1020B0001597EBCEF70182819381009741F06585FA
:1020C00076859B01220F331F620F731FE8DBD70158
:1020D0001496ED90FC901597E1CE912CD2CECF9333
:1020E000DF9310929E0A10929D0A88EE93E0A0E082
:1020F000B0E080939F0A9093A00AA093A10AB093A6
:10210000A20A23E332E030939C0A20939B0A25EC39
:1021100030E03093A80A2093A70A24EC30E03093F3
:10212000AA0A2093A90A20EC30E03093AC0A20934D
:10213000AB0A21EC30E03093AE0A2093AD0A22ECDA
:1021400030E03093B00A2093AF0A26EC30E03093B1
:10215000B20A2093B10A1092B40A1092B50A1092F2
:10216000B60A1092B70A2FEF2093380B10923A0B51
:102170001092390B1092440B1092430B4FEF5FEF0C
:10218000BA0140933F0B5093400B6093410B709307
:10219000420B10926C0B10926B0B80936D0B909313
:1021A0006E0BA0936F0BB093700B83E492E090934F
:1021B0006A0B8093690B1092800B10927F0B109228
:1021C000820B1092810B1092840B1092830B109251
:1021D000860B1092850B6091870B6E7F6D7F6093ED
:1021E000870B6695617081E068278BE098D9E8EFEE
:1021F000F3E02491E2EBF3E08491882399F090E0FE
:10220000880F991FFC01ED58FC4FA591B491FC017A
:10221000E75AFC4F859194918FB7F894EC91E22B9B
:10222000EC938FBFE8EFF3E0E491E093790BE2EBFE
:10223000F3E0E491F0E0EE0FFF1FE75AFC4F8591C9
:10224000949190937B0B80937A0BE7EFF3E02491CA
:10225000E1EBF3E084918823C1F090E0880F991FAF
:10226000FC01ED58FC4FC591D491FC01E75AFC4F9D
:10227000A591B4919FB7F8948881E22FE0958E23C1
:1022800088838C91E823EC939FBF8091870B81FD1D
:1022900003C061E08AE043D98AE08093750BE7EFE1
:1022A000F3E0E491E093760BE1EBF3E0E491F0E00E
:1022B000EE0FFF1FE357FC4F859194919093780B9D
:1022C0008093770B64E572E083E69BE0B5D866E621
:1022D00072E085E49BE0B0D869E672E08BE49BE0B5
:1022E000ABD86FE672E081E59BE0A6D867E772E0C5
:1022F00087E59BE0A1D86FE772E08DE59BE0DF9179
:10230000CF919AC897FB072E16F4009406D077FD5C
:1023100008D035D007FC05D03EF4909581959F4FAD
:102320000895709561957F4F0895052E97FB16F4DB
:1023300000940FD057FD05D09DD307FC02D046F482
:1023400008C050954095309521953F4F4F4F5F4FB6
:10235000089590958095709561957F4F8F4F9F4F11
:102360000895EE0FFF1F881F8BBF0790F691E02D99
:102370001994ACD3B7FF0895821B930B0895AA1B41
:10238000BB1B51E107C0AA1FBB1FA617B70710F060
:10239000A61BB70B881F991F5A95A9F78095909592
:1023A000BC01CD0108956F927F928F929F92AF9260
:1023B000BF92CF92DF92EF92FF920F931F93CF9332
:1023C000DF93EC01009781F4CB01DF91CF911F9156
:1023D0000F91FF90EF90DF90CF90BF90AF909F90C4
:1023E0008F907F906F90D7C0FC01E60FF71F9C0184
:1023F00022503109E217F30708F4A8C0D9010D9162
:102400001C91119706171707A8F00530110508F45D
:102410009BC0C80104978617970708F495C002501F
:102420001109061B170B019311936D937C93CF0138
:1024300047D18AC05B01A01AB10A4C01800E911EDF
:10244000A091910BB091920B40E050E0E12CF12C67
:10245000109709F44AC0A815B905D1F56D907C9084
:102460001197630182E0C80ED11CCA14DB0480F10D
:10247000A3014A195B096A0182E0C80ED11C1296B9
:10248000BC9012971396AC91B5E0CB16D10440F0F6
:10249000B282A38351834083D9016D937C930AC098
:1024A0000E5F1F4FC301800F911FF901918380833D
:1024B000EB2DFA2FE114F10431F0D7011396FC93C0
:1024C000EE93129741C0F093920BE093910B3CC0B6
:1024D0008D919C9111974817590708F4AC017D0123
:1024E00012960D90BC91A02DB3CF80918F0B90913F
:1024F000900B88159905E1F446175707C8F48091A9
:10250000070290910802009741F48DB79EB7409161
:102510000B0250910C02841B950BE817F907B0F4DD
:10252000F093900BE0938F0BF901718360830CC0E3
:10253000CB0131D07C01009749F0A801BE011BD02E
:10254000CE01BED0C70104C0CE0102C080E090E041
:10255000DF91CF911F910F91FF90EF90DF90CF907F
:10256000BF90AF909F908F907F906F90089581E083
:1025700090E0F894BAC2FB01DC0102C001900D9218
:1025800041505040D8F70895FB01DC0101900D92B5
:102590000020E1F70895CF93DF938230910510F486
:1025A00082E090E0E091910BF091920B20E030E01E
:1025B000C0E0D0E0309711F14081518148175907B0
:1025C000C0F04817590761F482819381209719F070
:1025D0009B838A832BC09093920B8093910B26C090
:1025E0002115310519F04217530718F49A01BE015D
:1025F000DF01EF010280F381E02DDCCF21153105F1
:1026000009F1281B390B2430310590F412968D9175
:102610009C9113976115710521F0FB0193838283CF
:1026200004C09093920B8093910BFD01329644C0AD
:10263000FD01E20FF31F81939193225031092D93F5
:102640003C933AC020918F0B3091900B232B41F497
:102650002091090230910A023093900B20938F0B46
:1026600020910702309108022115310541F42DB760
:102670003EB740910B0250910C02241B350BE091A8
:102680008F0BF091900BE217F307A0F42E1B3F0B7A
:102690002817390778F0AC014E5F5F4F24173507D4
:1026A00048F04E0F5F1F5093900B40938F0B819318
:1026B000919302C0E0E0F0E0CF01DF91CF91089567
:1026C0000F931F93CF93DF93009709F48CC0FC0105
:1026D0003297138212820091910B1091920B011587
:1026E000110581F420813181820F931F20918F0B7E
:1026F0003091900B2817390779F5F093900BE09300
:102700008F0B71C0D80140E050E0AE17BF0750F406
:1027100012962D913C911397AD012115310509F1C8
:10272000D901F3CF9D01DA01338322836081718166
:10273000860F971F8217930769F4EC01288139816E
:10274000260F371F2E5F3F4F318320838A819B8165
:1027500093838283452B29F4F093920BE093910BA2
:1027600042C01396FC93EE931297ED014991599153
:102770009E01240F351FE217F30771F480819181C8
:10278000840F951F029611969C938E93828193815C
:1027900013969C938E931297E0E0F0E0D801129686
:1027A0008D919C911397009719F0F8018C01F6CF49
:1027B0008D919C9198012E5F3F4F820F931F209126
:1027C0008F0B3091900B2817390769F4309729F453
:1027D0001092920B1092910B02C0138212821093EE
:1027E000900B00938F0BDF91CF911F910F91089564
:1027F0002F923F924F925F926F927F928F929F9211
:10280000AF92BF92CF92DF92EF92FF920F931F93FE
:10281000CF93DF935C016B017A016115710519F0AB
:10282000FB0191838083E114F10429F0C701029731
:10283000839708F0EEC0E5012196F5011081812F04
:1028400090E0FED0892B11F05E01F5CF1D3229F406
:102850002196F501118101E007C01B3221F4E50149
:102860002296F501118100E0E114F10459F1F0E143
:10287000EF16F10461F41033E1F488818F7D88351F
:1028800069F519812296026070E1E72EF12C88E04B
:10289000E816F10439F12CF4F2E0EF16F104C1F17D
:1028A0002AC08AE0E816F10479F0E0E1EE16F104BE
:1028B00011F550E1E52EF12C812C912CA12C68E032
:1028C000B62E2BC01033C9F23AE0E32EF12C4CECBB
:1028D000842E982CA82C4CE0B42E1FC010E3E114D9
:1028E000F104A9F698E0E92EF12C812C912CA12C71
:1028F00020E1B22E12C060E070E080E090E8970125
:102900000F2C000C440B550BB5D049015A0105C0E2
:10291000812C912CA12C80E4B82E60E020E030E0E6
:10292000A90127010F2C000C660877081E01E0EDB5
:10293000E10FEA3060F08FEB810F8A3110F4E9EC9F
:1029400005C08FE9810F8A3120F5E9EAE10F8E2F6A
:1029500090E08E159F05ECF467FD17C08216930674
:10296000A406B50688F0C301B20175D09B01AC0185
:102970002E0F311D411D511D213031054105F0E85B
:102980005F0710F461E001C06FEF2196F101108143
:10299000CDCF802F8170C114D10471F0662329F04E
:1029A0002197F601D183C08307C001FF19C0229788
:1029B000F601D183C08314C067FF12C0811105C026
:1029C0002FEF3FEF4FEF5FE704C020E030E040E043
:1029D00050E882E290E09093940B8093930B16C0A2
:1029E000882341F050954095309521953F4F4F4FAA
:1029F0005F4F0CC057FF0AC082E290E09093940BA7
:102A00008093930B2FEF3FEF4FEF5FE7B901CA01C0
:102A100004C060E070E080E090E0DF91CF911F9112
:102A20000F91FF90EF90DF90CF90BF90AF909F906D
:102A30008F907F906F905F904F903F902F90089570
:102A4000911106C0803219F089508550D0F7089551
:102A5000992788270895DB018F939F932DD0BF91ED
:102A6000AF91A29F800D911DA39F900DB29F900DDD
:102A700011240895A1E21A2EAA1BBB1BFD010DC053
:102A8000AA1FBB1FEE1FFF1FA217B307E407F5071E
:102A900020F0A21BB30BE40BF50B661F771F881FFA
:102AA000991F1A9469F760957095809590959B0190
:102AB000AC01BD01CF01089509D0A59F900DB49F31
:102AC000900DA49F800D911D11240895A29FB00127
:102AD000B39FC001A39F700D811D1124911DB29F52
:102AE000700D811D1124911D089512E0CBE1D2E0FB
:102AF00000E005C0802FFE0134DC2196011DCC31A1
:0C2B0000D10780E00807B1F7F894FFCF80
:102B0C00463046303030000000950B80000000004D
:102B1C0000CF08CF08CF08640360035D03000000FA
:102B2C00001B03D802D60264036003D302870300A0
:102B3C00000000C80745079207700784070E0800BD
:102B4C000000007B0845074E02650262087A084FB8
:102B5C004B000D0A0020003A0044454641554C54A8
:102B6C00205445585400415400746578743D0062FB
:102B7C0072696768743D007570646174653D0063CB
:062B8C006F6C6F723D004A
:00000001FF
