:100000000C945E010C9486010C9486010C94B2054C
:100010000C94B2050C94B2050C9486010C948601E4
:100020000C9486010C9486010C9486010C94860134
:100030000C9486010C9486010C9486010C94860124
:100040000C9431080C9486010C94BF090C94990906
:100050000C9486010C9486010C9486010C94860104
:100060000C9486010C948601667265654D656D6F12
:10007000727928293D006C6172676520537472693A
:100080006E673A200000000008000201000003042F
:100090000700000000000000000000000000000059
:1000A00000000000DEDE00000000080E06080E065C
:1000B000002828FE28FE282800485C54FE5474249A
:1000C00000466630180C6662000000000000000068
:1000D000000000080E060000000000007CFE820008
:1000E000000082FE7C00000000002A1C3E1C2A004A
:1000F000000010107C7C101000000080E060000008
:100100000000101010101000000000C0C00000001F
:1001100000C06030180C0600007CFE828282FE7CEB
:1001200000000004FEFE000000C4E6A2B2929E8C15
:100130000044C6929292FE6C0030382C26FEFE20BF
:10014000004ECE8A8A8AFA720078FC969292F26009
:10015000000202E2F21A0E06006CFE929292FE6C0F
:10016000000C9E9292D27E3C0000006C6C0000005D
:10017000000080E666000000000010386CC68200B7
:100180000000282828282828000082C66C38100083
:10019000000406A2B2121E0C007CFE82BAAA3E3CEB
:1001A00000F8FC262626FCF800FEFE929292FE6CD9
:1001B00000387CC68282C64400FEFE8282C67C383D
:1001C00000FEFE929292828200FEFE121212020243
:1001D00000387CC682A2E6E400FEFE101010FEFE8F
:1001E00000000000FEFE00000060E0808080FE7ED7
:1001F00000FEFE10386CC6C600FEFE808080808047
:1002000000FEFE1C381CFEFE00FEFE0C1830FEFE3A
:10021000007CFE828282FE7C00FEFE1212121E0C08
:10022000003C7E4262E2FEBC00FEFE121232FECCB8
:10023000004CDE9A92B2F664000606FEFEFE06064A
:10024000007EFEC08080FEFE003E7EE0C0E07E3E7E
:1002500000FEFE603060FEFE00C6EE7C387CEEC61E
:1002600000000E1EF0F01E0E0082C2E2B29A8E86D0
:100270000000000000250028002B000000000024E2
:100280000027002A000000000023002600290004A7
:10029000040404040404040202020202020303032D
:1002A0000303030102040810204080010204081027
:1002B0002001020408102000F40FD90C11241FBEE5
:1002C000CFEFD8E0DEBFCDBF11E0A0E0B1E0E8E1C4
:1002D000FAE202C005900D92A236B107D9F724E0E8
:1002E000A2E6B1E001C01D92AE39B207E1F711E01C
:1002F000CDE5D1E004C02197FE010E944D11CC351F
:10030000D107C9F70E94E90C0C94FF140C9400006B
:100310002091A6013091A7012817390771F4909117
:10032000A4018091A501981741F0E091A401F0E0AB
:10033000EC59FE4F808190E008958FEF9FEF089574
:1003400008951F93CF93DF93DC015C962D913C9130
:100350005D972115310539F481E090E013969C9367
:100360008E9312973DC05196ED91FC915297509605
:100370009C915097892F80951FB75E964C915E9700
:1003800041FB772770F941FD6095F8944081772310
:1003900011F0492B01C048234083E9012197F1F76F
:1003A00048E0508160FF02C0592B01C058235083A0
:1003B000E9012197F1F76695415099F7772321F0EC
:1003C00090818923808303C08081982B90831FBFF5
:1003D0005C968D919C915D970197F1F721E030E05B
:1003E000C901DF91CF911F9108952091A60130910D
:1003F000A7012817390771F48091A5012091A40164
:1004000090E0805C9F4F821B910960E470E00E9445
:10041000FF10089580E090E008952091A6013091AA
:10042000A70128173907B9F49091A4018091A5017B
:10043000981789F0E091A401F0E0EC59FE4F80811B
:100440002091A40130E02F5F3F4F2F73332720937B
:10045000A40190E008958FEF9FEF0895EF92FF922F
:100460000F931F93CF93DF93EC01909163019F5FF4
:10047000292F27702093630190FF02C090E801C0EC
:1004800090E021FD9064247009F0906220E1290F32
:10049000FE013C967E018FE0E80EF11C00E011E0C9
:1004A0006191662331F070E0C8010E94FF106F5F18
:1004B00001C060E0DF0114976C93322F369F030E6A
:1004C00030E0311D1124CF010797311103C0EC0139
:1004D000188203C03150EC013883662311F061505B
:1004E0006C93EE15FF05E1F6DF91CF911F910F910F
:1004F000FF90EF90089580E991E00895539A089550
:100500000F931F93CF93DF93CDB7DEB762970FB6EC
:10051000F894DEBF0FBECDBF8C01F901DC011C9643
:100520008C917A8369835C834B835E834D83908156
:100530009D8791819E8792819F87813029F4CE018A
:1005400001960E942E0206C01C861B861A861986FA
:1005500018861F8283E0888B1A8A198AD801ED9148
:10056000FC910484F585E02DBE016F5F7F4FC801CB
:10057000099562960FB6F894DEBF0FBECDBFDF912E
:10058000CF911F910F9108950F931F93CF93DF93F6
:10059000CDB7DEB762970FB6F894DEBF0FBECDBF02
:1005A0008C01F901DC011C968C917A8369835C8350
:1005B0004B835E834D8390819D8791819E8792813D
:1005C0009F87813029F4CE0101960E942E0206C039
:1005D0001C861B861A86198618861F82188A1A8A14
:1005E000198AD801ED91FC910484F585E02DBE01B6
:1005F0006F5F7F4FC801099562960FB6F894DEBF12
:100600000FBECDBFDF91CF911F910F91089580E074
:1006100090E00895FC01858596850895CF93DF933A
:1006200000D000D000D0CDB7DEB7AB011C821D8258
:100630001E82DC01ED91FC910190F081E02D198288
:100640001A821B829E012F5F3F4FBE016C5F7F4F5E
:10065000099526960FB6F894DEBF0FBECDBFDF9189
:10066000CF9108954F925F926F927F928F92AF9247
:10067000BF92CF92EF92FF920F931F93CF93DF938E
:100680003C01EB010E94D207F30127853089621BF0
:10069000730B6A307105B0F3F894E881F9815BB1AE
:1006A00058608BB1877F8BB96A859F81262F291B64
:1006B000922F2F83BF844A805B807D85FC84EE84EB
:1006C0007F5FF394E3943E814885A984CB841181B4
:1006D000D20120E0C32F022F322F318111278894BD
:1006E0003111390F08F43FEF9195889470FD130F85
:1006F0001795889471FD130F1795889472FD130F49
:100700001795889473FD130F1795889474FD130F34
:100710001795889475FD130F1795889476FD130F20
:100720001795889477FD130F17958894232F7111CF
:10073000212F960F122F002C5BB900C017FF8BB929
:1007400030812227889400C000C0002C8BB9311161
:100750003C0F00C0002C5BB900C016FF8BB908F439
:100760003FEFC195889400C000C0002C8BB9F0FC0D
:10077000230F00C0002C5BB900C015FF8BB9279573
:100780008894F1FC230F00C000C0002C8BB9279582
:10079000889400C0002C5BB900C014FF8BB9F2FC38
:1007A000230F2795889400C000C0002C8BB9F3FC60
:1007B000230F00C0002C5BB900C013FF8BB9279535
:1007C0008894F4FC230F00C000C0002C8BB927953F
:1007D000889400C0002C5BB900C012FF8BB9F5FCF7
:1007E000230F2795889400C000C0002C8BB9F6FC1D
:1007F000230F00C0002C5BB900C011FF8BB92795F7
:100800008894F7FC230F00C000C0002C8BB92795FB
:10081000889400C0002C5BB900C010FF8BB9132F67
:10082000F110122FCA0D00C000C0002C8BB900C0FF
:1008300000C0002C5BB900C017FF8BB932812227A2
:10084000889400C000C0002C8BB93111340F00C057
:10085000002C5BB900C016FF8BB908F43FEFEB0D1D
:10086000F11D00C000C0002C8BB9E0FC230F00C0BC
:10087000002C5BB900C015FF8BB927958894E1FC6B
:10088000230F00C000C0002C8BB92795889400C0AE
:10089000002C5BB900C014FF8BB9E2FC230F279535
:1008A000889400C000C0002C8BB9E3FC230F00C06B
:1008B000002C5BB900C013FF8BB927958894E4FC2A
:1008C000230F00C000C0002C8BB92795889400C06E
:1008D000002C5BB900C012FF8BB9E5FC230F2795F4
:1008E000889400C000C0002C8BB9E6FC230F00C028
:1008F000002C5BB900C011FF8BB927958894E7FCE9
:10090000230F00C000C0002C8BB92795889400C02D
:10091000002C5BB900C010FF8BB9132FE110122F10
:10092000419500C000C0002C8BB94C0D00C000C028
:100930005BB900C017FF8BB931812227889400C0B2
:1009400000C0002C8BB93111390F00C0002C5BB9ED
:1009500000C016FF8BB908F43FEF9195889400C052
:1009600000C0002C8BB970FD230F00C0002C5BB9B8
:1009700000C015FF8BB92795889471FD230F00C027
:1009800000C0002C8BB92795889400C0002C5BB95F
:1009900000C014FF8BB972FD230F2795889400C007
:1009A00000C0002C8BB973FD230F00C0002C5BB975
:1009B00000C013FF8BB92795889474FD230F00C0E6
:1009C00000C0002C8BB92795889400C0002C5BB91F
:1009D00000C012FF8BB975FD230F2795889400C0C6
:1009E00000C0002C8BB976FD230F00C0002C5BB932
:1009F00000C011FF8BB92795889477FD230F00C0A5
:100A000000C0002C8BB92795889400C0002C5BB9DE
:100A100000C010FF8BB9132F7111122F960F00C059
:100A200000C0002C8BB9119709F086CE20EE31E082
:100A3000D2010E943211DC01CB01F4E0B695A795FA
:100A400097958795FA95D1F720E030E0A9016AE9FA
:100A5000469E412D569E400D511D1124840F951F19
:100A6000A11DB11D893E43E09407A105B10588F1A0
:100A7000885E9340A109B10942E0B695A795979584
:100A800087954A95D1F747E0849F212D949F200DAB
:100A9000311D11246091620170E0860F971F820F53
:100AA000931F4091BA035091BB036091BC037091B6
:100AB000BD03292F3327420F531F611D711D409322
:100AC000BA035093BB036093BC037093BD03809340
:100AD000620178940E94D207F301708B6787DF91DF
:100AE000CF911F910F91FF90EF90CF90BF90AF905B
:100AF0008F907F906F905F904F900895FF920F932B
:100B00001F93CF93DF93C0E0D0E0FF24F3948EEBEC
:100B100093E00E942A07892BF9F08EEB93E00E9464
:100B200008078D3011F08A3019F4F092A8010DC039
:100B30008E010F5F1F4FC630D10524F4C050DF4F28
:100B4000888302C00E946D0CE80162E070E080E0E2
:100B500090E00E94F707DBCFDF91CF911F910F91BB
:100B6000FF9008951F920F920FB60F9211242F93AA
:100B70003F934F935F936F937F938F939F93AF9325
:100B8000BF93EF93FF93E091A601F091A7013097F7
:100B900009F451C0968DA685B785858591FF04C05F
:100BA0009C91892329F447C09C91892309F043C073
:100BB000A389B4899C918589809589238C938689A2
:100BC00097890197F1F7608D718DA685B785558559
:100BD00038E020E0CB010197F1F7822F90E0959566
:100BE0008795282F4C91452309F02068315091F7C3
:100BF000868D81FD20958091A50190E001968F73EF
:100C000099273091A401381749F0A091A501B0E0CF
:100C1000AC59BE4F2C938093A50103C0868D816093
:100C2000868F828D938D0197F1F7A389B4899C916A
:100C30008589892B8C93FF91EF91BF91AF919F9103
:100C40008F917F916F915F914F913F912F910F9075
:100C50000FBE0F901F901895E091A601F091A7018B
:100C6000E817F90769F4A389B4899C91858980956F
:100C700089238C931092A7011092A60181E0089518
:100C800080E008950F931F93CF93DF93EC018B01C6
:100C90006FE471E0C8010E94DB08198218821B8290
:100CA0001A821D821C82B801CE010E947B08CE01EF
:100CB000DF91CF911F910F9108954F925F926F92A4
:100CC0007F92AF92BF92CF92DF92EF92FF920F93FB
:100CD0001F93CF93DF93FC01108211821282442371
:100CE000B9F18B01075F1F4F5C01EB012C96442E7D
:100CF000512C612C712CD8011397CC90D8012D91D7
:100D00008D01CC20F9F02223E9F0822F90E0A0E0C1
:100D1000B0E09C01AD012F5F3F4F4F4F5F4FC301CC
:100D2000B2010E947C149B01AC01D12CE12CF12C6E
:100D3000C701B6016F5F7F4F8F4F9F4F0E947C149A
:100D4000D5018C93BFEFAB1ABB0A0C171D0799F6A0
:100D5000CF01DF91CF911F910F91FF90EF90DF9026
:100D6000CF90BF90AF907F906F905F904F9008951D
:100D70000895EF92FF920F931F93CF93DF938C010F
:100D80007B01C0E0D0E0F701EC0FFD1F649166230A
:100D900061F0D801ED91FC910190F081E02DC80146
:100DA0000995892B11F02196EECFCE01DF91CF91DD
:100DB0001F910F91FF90EF900895CF92DF92EF92E5
:100DC000FF920F931F93CF93DF936C017A018B01F6
:100DD000C0E0D0E0CE15DF0589F0D8016D918D011E
:100DE000D601ED91FC910190F081E02DC6010995AD
:100DF000892B11F47E0102C02196ECCFC701DF914F
:100E0000CF911F910F91FF90EF90DF90CF900895B9
:100E1000FC01918D828D981761F0828DDF01A80F02
:100E2000B11D5D968C91928D9F5F9F73928F90E024
:100E300008958FEF9FEF0895FC01918D828D981793
:100E400031F0828DE80FF11D858D90E008958FEFD0
:100E50009FEF0895FC01918D228D892F90E0805C99
:100E60009F4F821B91098F73992708958EEB93E012
:100E70000E942A0721E0892B09F420E0822F08959F
:100E8000FC01848DDF01A80FB11DA35ABF4F2C9127
:100E9000848D90E001968F739927848FA689B789F6
:100EA0002C93A089B1898C9180648C93938D848DCF
:100EB000981306C00288F389E02D80818F7D80839E
:100EC0000895EF92FF920F931F93CF93DF93EC015E
:100ED00081E0888F9B8D8C8D981305C0E889F989F6
:100EE000808185FD24C0F62E0B8D10E00F5F1F4F13
:100EF0000F731127E02E8C8DE8120CC00FB607FC83
:100F0000FACFE889F989808185FFF5CFCE010E946B
:100F10004007F1CF8B8DFE01E80FF11DE35AFF4F23
:100F2000F0820B8FEA89FB898081806207C0EE899D
:100F3000FF896083E889F98980818064808381E00A
:100F400090E0DF91CF911F910F91FF90EF90089566
:100F5000CF93DF93EC01888D8823C9F0EA89FB8960
:100F6000808185FD05C0A889B9898C9186FD0FC057
:100F70000FB607FCF5CF808185FFF2CFA889B9892C
:100F80008C9185FFEDCFCE010E944007E7CFDF9126
:100F9000CF9108950E94360781110C947E05089523
:100FA0000E941D123FB7F8948091C8019091C90129
:100FB000A091CA01B091CB0126B5A89B05C02F3FD7
:100FC00019F00196A11DB11D3FBFBA2FA92F982F6F
:100FD0008827820F911DA11DB11DBC01CD0142E0EA
:100FE000660F771F881F991F4A95D1F708958F9232
:100FF0009F92AF92BF92CF92DF92EF92FF926B01DE
:101000007C010E94D2074B015C01C114D104E104B0
:10101000F104F1F00E94D207DC01CB018819990993
:10102000AA09BB09883E9340A105B10570F321E0F0
:10103000C21AD108E108F10888EE880E83E0981EF4
:10104000A11CB11CC114D104E104F10419F7DDCFD6
:10105000FF90EF90DF90CF90BF90AF909F908F90D8
:1010600008951F920F920FB60F9211242F933F9362
:101070008F939F93AF93BF938091BA039091BB03DB
:10108000A091BC03B091BD033091C70123E0230FB1
:101090002D3720F40196A11DB11D05C026E8230FB0
:1010A0000296A11DB11D2093C7018093BA039093AE
:1010B000BB03A093BC03B093BD038091C801909182
:1010C000C901A091CA01B091CB010196A11DB11D2A
:1010D0008093C8019093C901A093CA01B093CB013A
:1010E000BF91AF919F918F913F912F910F900FBE24
:1010F0000F901F9018950F931F93CF93DF938C0140
:10110000EB01FC01808191810097B1F068817981C8
:101110006115710579F0428153812C813D8142171F
:10112000530740F00E942B128C819D81F80195831A
:10113000848313C00E94C71288819981F80191832A
:1011400080838A819B81938382838C819D81958317
:101150008483198218821B821A821D821C82DF916D
:10116000CF911F910F9108950F931F93CF93DF930A
:10117000EC0188819981009729F02A813B8126170B
:10118000370788F48B016F5F7F4F0E9453110097E0
:1011900061F0998388831B830A832C813D81232BF3
:1011A00011F4FC01108281E001C080E0DF91CF9159
:1011B0001F910F910895EF92FF920F931F93CF937A
:1011C000DF936115710511F480E023C0FB010190EC
:1011D0000020E9F73197E61BF70BDC0114960D911F
:1011E0001C9115973097A1F07B01EC010E0F1F1F8A
:1011F000B8010E94B408882339F3288139818C8191
:101200009D81B701820F931F0E942B121D830C83B7
:1012100081E0DF91CF911F910F91FF90EF900895A2
:10122000EF92FF920F931F93CF93DF93EC017B011B
:101230008A01BA010E94B4082881398181110DC048
:101240002115310519F0C9010E94C71219821882AF
:101250001D821C821B821A8206C01D830C83B7016B
:10126000C9010E942B12CE01DF91CF911F910F91E6
:10127000FF90EF9008956115710579F0FB010190E1
:101280000020E9F73197AF01461B570BDC01ED91C8
:10129000FC910280F381E02D099480E090E00895B4
:1012A0004F925F926F927F92EF92FF920F931F93F4
:1012B000CF93DF93CDB7DEB7A1970FB6F894DEBF1B
:1012C0000FBECDBF7C01FA01CB0119A2223008F478
:1012D0002AE08E010F5D1F4F422E512C612C712C84
:1012E000BF01A30192010E948C14F901CA010150AF
:1012F00011096A3014F4605D01C0695CD8016C9317
:10130000232B242B252B61F7B801C7010E943B0931
:10131000A1960FB6F894DEBF0FBECDBFDF91CF917F
:101320001F910F91FF90EF907F906F905F904F9083
:1013300008951F920F920FB60F9211242F933F938F
:101340004F935F936F937F938F939F93AF93BF93CD
:10135000EF93FF938EEB93E00E944007FF91EF9194
:10136000BF91AF919F918F917F916F915F914F91BD
:101370003F912F910F900FBE0F901F9018951F92C5
:101380000F920FB60F9211242F938F939F93EF9389
:10139000FF93E091CE03F091CF038081E091D403DD
:1013A000F091D50382FD12C090818091D7038F5FA9
:1013B0008F732091D803821751F0E091D703F0E0AA
:1013C000E254FC4F958F8093D70301C08081FF9139
:1013D000EF919F918F912F910F900FBE0F901F90C3
:1013E0001895CF92DF92EF92FF920F931F93809107
:1013F0009604909197049C012F5F3F4F3093970480
:101400002093960449970CF447C08FB7F894009145
:10141000BA031091BB032091BC033091BD038FBF71
:10142000E0919604F091970488EE93E0E89FB00174
:10143000E99F700DF89F700D1124072E000C880B8A
:10144000990BC0909204D0909304E0909404F09093
:101450009504A90198012C193D094E095F090E94C4
:101460008C1430935D0420935C04109297041092C6
:1014700096042FB7F8948091BA039091BB03A09182
:10148000BC03B091BD032FBF80939204909393044B
:10149000A0939404B09395041F910F91FF90EF9047
:1014A000DF90CF90089520E0DC0160FF03C001C011
:1014B0002D932D936250E0F77040D0F7089590E09F
:1014C000FC01EB57FF4F3491FC01ED55FD4F24918A
:1014D000FC01E157FD4FE491EE2309F43BC03323B7
:1014E00039F1333091F038F43130A9F0323001F570
:1014F00084B58F7D12C0373091F03830A1F0343090
:10150000B9F4809180008F7D03C0809180008F7737
:10151000809380000DC084B58F7784BD09C0809111
:10152000B0008F7703C08091B0008F7D8093B000B2
:10153000F0E0EE0FFF1FEF58FD4FA591B4918FB76C
:10154000F894EC91611103C020952E2301C02E2B3D
:101550002C938FBF0895CF93DF93A0E02A2F30E024
:10156000FC01448155812417350760F5EC01E881C1
:10157000F981309729F410929104E1E9F4E002C076
:10158000E20FF31F6081605243E0220F331F4A9540
:10159000E1F7D8E06D9FB001112440E050E0FA017E
:1015A000E60FF71FE756FF4FE491EA01C20FD31F82
:1015B000C257DD4FE8834F5F5F4F4830510579F7E1
:1015C000AF5FCCCFDF91CF910895CF92DF92EF92B2
:1015D000FF920F931F93CF93DF9300D000D000D0E2
:1015E000CDB7DEB71C821D821E8280915E04909171
:1015F0005F04A0916004B0916104892B8A2B8B2B2E
:10160000E9F00E94D20700918D0410918E04209180
:101610008F0430919004DC01CB01801B910BA20B55
:10162000B30B00915E0410915F042091600430912F
:10163000610480179107A207B307B8F20E94D2078E
:1016400060938D0470938E0480938F049093900424
:10165000E0916604F0916704309709F45CC0409112
:10166000620450916304609164047091650480E0A9
:101670000995F82E00918C0210918D02011511052B
:1016800069F1D8011C96EC901C9780915C049091B4
:101690005D048436910510F41C961C92D801ED91DE
:1016A000FC91C080D1804F2DB801CE0101960E94DF
:1016B0005D06F801458556859E012F5F3F4FBE01AF
:1016C0006C5F7F4FC801F6010995D8011C96EC921A
:1016D0001C9714960D911C911597D0CF0E94F1097B
:1016E00000918C0210918D0201151105B1F0F801E5
:1016F00082819381009749F0658576859B01220F51
:10170000331F620F731F0E94530AD80114960D9164
:101710001C911597E9CFF12CADCF26960FB6F89412
:10172000DEBF0FBECDBFDF91CF911F910F91FF9014
:10173000EF90DF90CF900895CF92DF92EF92FF92DB
:101740000F931F93CF93DF9300D000D000D0CDB77D
:10175000DEB78A016C837D838E830E94E50A8E81C9
:101760007D814CEC51E0D801A257BD4F6C8192E0D5
:101770004C38590711F1ED90F12C00E010E020E019
:1017800030E0FA01E00FF11F6701022E01C0CC0C1E
:101790000A94EAF7C7FE04C080837183628303C0A2
:1017A0001082118212822F5F3F4F0D5F1F4F283032
:1017B000310539F7485E5F4FDACFF0905B048091D6
:1017C0005E0490915F04A0916004B0916104892B44
:1017D0008A2B8B2BE9F00E94D20700918D04109187
:1017E0008E0420918F0430919004DC01CB01801B8A
:1017F000910BA20BB30B00915E0410915F0420913A
:1018000060043091610480179107A207B307B8F212
:101810000E94D20760938D0470938E0480938F048E
:1018200090939004E0916604F0916704309759F02A
:101830004091620450916304609164047091650466
:101840008F2D0995F82E00918C0210918D020115B3
:10185000110561F1D8011C96EC901C9780915C04F5
:1018600090915D048436910510F41C961C92D80169
:10187000ED91FC91C280D3804F2DB801CE0101962D
:101880000E945D06F80145855685628173819E013F
:101890002F5F3F4FC801F6010995D8011C96EC92C5
:1018A0001C9714960D911C911597D1CF0E94F109A8
:1018B00064E670E080E090E00E94F70726960FB69D
:1018C000F894DEBF0FBECDBFDF91CF911F910F9176
:1018D000FF90EF90DF90CF9008950F931F93CF93D9
:1018E000DF9300D0CDB7DEB789831A8200916C04F4
:1018F00010916D040F5F1F4FB80188E694E00E94BD
:10190000B4088823A1F02091680430916904809183
:101910006C0490916D04BE016F5F7F4F820F931F27
:101920000E942B1210936D0400936C0481E00F90C1
:101930000F90DF91CF911F910F910895CF92DF9279
:10194000EF92FF920F931F93CF93DF93EC016B0104
:10195000770FEE08FF08F7FE16C0E881F9810190C5
:10196000F081E02D6DE209958C0144275527BA01DD
:101970004C195D096E097F092AE0CE010E945009C9
:10198000080F191F06C02AE0B701A6010E945009DE
:101990008C0161E571E0CE010E943B09800F911F2F
:1019A000DF91CF911F910F91FF90EF90DF90CF903B
:1019B000089580916804909169040E94C71283E49D
:1019C00091E090936F0480936E048EE694E00C9403
:1019D0002C06CF93DF93CDB7DEB762970FB6F8949E
:1019E000DEBF0FBECDBF789484B5826084BD84B560
:1019F000816084BD85B5826085BD85B5816085BD0A
:101A000080916E00816080936E00109281008091C1
:101A10008100826080938100809181008160809349
:101A20008100809180008160809380008091B1006E
:101A300084608093B1008091B00081608093B00099
:101A400080917A00846080937A0080917A0082602D
:101A500080937A0080917A00816080937A008091EF
:101A60007A00806880937A001092C100E091CE03E2
:101A7000F091CF0382E08083E091CA03F091CB0321
:101A80001082E091CC03F091CD038FEC8083109213
:101A9000D603E091D203F091D30386E08083E091F6
:101AA000D003F091D103808180618083E091D003E5
:101AB000F091D103808188608083E091D003F09120
:101AC000D103808180688083E091D003F091D103BD
:101AD00080818F7D80838091BC01811145C01092EF
:101AE000AE011092AD018FEF8093B1018093B201EE
:101AF0008093B3018093B4018093B5018093B601C4
:101B000081E08093B7011092B9011092B801109250
:101B1000B0011092AF0180918C0290918D02892BBF
:101B200031F48BEA91E090938D0280938C02E091E6
:101B3000A901F091AA01309721F08BEA91E09583F9
:101B400084838BEA91E09093AA018093A90110927B
:101B5000BB011092BA0181E291E09093AC018093B5
:101B6000AB0181E08093BC01E091AB01F091AC014D
:101B70000480F581E02D8BEA91E009958CEC91E0F1
:101B80009093AE018093AD0180E490E09093B90111
:101B90008093B801E091AB01F091AC010284F38530
:101BA000E02D8BEA91E00995009729F19C0140E036
:101BB00050E060E472E48FE090E00E941311722F15
:101BC000632F00915E0410915F04209160043091B6
:101BD0006104872F962FDA0180179107A207B307B8
:101BE00010F4D901C80180935E0490935F04A09320
:101BF0006004B093610410928904109288041092DA
:101C000087041092860410928504109284048DEC4F
:101C100090E090938B0480938A0490917A0496319B
:101C200008F057C025E530E0309385042093840404
:101C30002BEC30E0309387042093860420E930E0D9
:101C4000309389042093880420916800983050F0E4
:101C500031E09E3008F430E081E001C0880F3A9511
:101C6000EAF701C084E0822B80936800983038F056
:101C70009E3040F0963148F020E030E008C02DE67C
:101C800030E005C02BE630E002C02CE630E03093B7
:101C9000820420938104983030F481E001C0880FE1
:101CA0009A95EAF70EC0292F30E09E3018F428509C
:101CB000310902C02E50310981E001C0880F2A95F8
:101CC000EAF78093830480918A0490918B040197B2
:101CD000F1F78091880490918904892B21F18091FA
:101CE000A6019091A70124E08E369207E1F00097BB
:101CF00011F00E942C0680918C048E7F80938C04BE
:101D00001092A5011092A4018EE694E09093A70191
:101D10008093A601E0918104F091820490818091EA
:101D20008304892B8083BB24B3942AE0A22ECE01A6
:101D300001967C019C012E59344069018EE694E0A5
:101D40000E94F501892B41F4A0925B048091A801C7
:101D5000882309F495C029C000E010E08EE694E0E5
:101D60000E94F501892B81F38EE694E00E940D021A
:101D70008D3011F08A3019F4B092A8010FC098018B
:101D80002F5F3F4F4901063011052CF4F801E05058
:101D9000FF4F808302C00E946D0C840162E070E0FE
:101DA00080E090E00E94F707D9CF0E94E50A4091B9
:101DB0006C0450916D0460916804709169048EEB1D
:101DC00093E00E94DD0661E571E08EEB93E00E94F6
:101DD0003B0966E770E08EEB93E00E94B906409104
:101DE0006C0450916D0460E070E02AE08EEB93E0AB
:101DF0000E94500961E571E08EEB93E00E943B097F
:101E00001092A801B092C60118861F821A86198600
:101E10001C861B86609168047091690461157105C8
:101E200041F040916C0450916D04CE0107960E94E0
:101E30001009BE01695F7F4FC7010E944206B701CA
:101E400088E694E00E947B0889819A810E94C712EB
:101E50008F8198850E94C71288E694E00E94AB0AA1
:101E600080916C0490916D049093C5018093C4019E
:101E700040E050E063E571E088E694E00E941009DC
:101E80008091C601882349F10091C4011091C501D8
:101E90000150110993E0000F111F9A95E1F7B80165
:101EA0008EEB93E00E949E0C40E150E060E070E019
:101EB00080E091E00E945F132B013C01812C912C6A
:101EC000801691060CF06DC0A401C301B2010E94FE
:101ED0009C0B3FEF831A930AF3CF1E861D86188A48
:101EE0001F861A8A198A4CE050E064E571E0CE0141
:101EF0000D960E94100940E150E060E070E080E043
:101F000091E00E945F132B013C0118861F821A8604
:101F100019861C861B866D857E856115710531F0DD
:101F200049895A89CE0107960E941009BE01695F4E
:101F30007F4FC7010E944206B701CE010D960E9455
:101F40007B0889819A810E94C7128F8198850E949F
:101F5000C712CE010D960E94AB0A09891A89109307
:101F6000C5010093C4010150110983E0000F111F46
:101F70008A95E1F7B8018EEB93E00E949E0C812CCC
:101F8000912C801691064CF4A401C301B2010E9469
:101F90009C0B8FEF881A980AF4CF8D859E850E943E
:101FA000C71268E670E08EE694E00E94B906809160
:101FB000980490919904009719F4DA82C98205C0B7
:101FC0009701281B390B3A83298369817A818EE630
:101FD00094E00E949E0C64EF71E080E090E00E942B
:101FE000F7070E94CA07AACECF93DF931092C103CE
:101FF0001092C00388EE93E0A0E0B0E08093C203AB
:102000009093C303A093C403B093C50323E331E0CB
:102010003093BF032093BE0325EC30E03093CB0315
:102020002093CA0324EC30E03093CD032093CC03FB
:1020300020EC30E03093CF032093CE0321EC30E04E
:102040003093D1032093D00322EC30E03093D303BC
:102050002093D20326EC30E03093D5032093D403B1
:102060001092D7031092D8031092D9031092DA037A
:102070002FEF20935B0410925D0410925C04109289
:102080006704109266044FEF5FEFBA014093620459
:102090005093630460936404709365041092710418
:1020A000109270048093720490937304A09374044C
:1020B000B093750483E491E090936F0480936E0471
:1020C0001092850410928404109287041092860462
:1020D000109289041092880410928B0410928A0442
:1020E00060918C046E7F6D7F60938C046695617047
:1020F00081E068278BE00E945F0AEEEAF2E024911B
:10210000EAE9F2E08491882399F090E0880F991F22
:10211000FC01E558FD4FA591B491FC01EF58FD4F2E
:10212000859194918FB7F894EC91E22BEC938FBF4B
:10213000EEEAF2E0E491E0937E04EAE9F2E0E49171
:10214000F0E0EE0FFF1FEF58FD4F859194919093B3
:10215000800480937F04EDEAF2E02491E9E9F2E063
:1021600084918823C1F090E0880F991FFC01E55805
:10217000FD4FC591D491FC01EF58FD4FA591B4914D
:102180009FB7F8948881E22FE0958E2388838C9105
:10219000E823EC939FBF80918C0481FD04C061E033
:1021A0008AE00E945F0A8AE080937A04EDEAF2E016
:1021B000E491E0937B04E9E9F2E0E491F0E0EE0FD2
:1021C000FF1FEB57FD4F8591949190937D04809371
:1021D0007C04109269041092680410926B041092AF
:1021E0006A0410926D0410926C0440E050E063E5C4
:1021F00071E088E694E0DF91CF910C94100997FB91
:10220000072E16F4009407D077FD09D00E943911EB
:1022100007FC05D03EF4909581959F4F08957095E9
:1022200061957F4F0895052E97FB1EF400940E9440
:102230002A1157FD07D00E948C1407FC03D04EF4DE
:102240000C942A1150954095309521953F4F4F4F52
:102250005F4F089590958095709561957F4F8F4F52
:102260009F4F08950E94F014B7FF0895821B930BAF
:102270000895AA1BBB1B51E107C0AA1FBB1FA617CD
:10228000B70710F0A61BB70B881F991F5A95A9F71F
:1022900080959095BC01CD010895EE0FFF1F05902C
:1022A000F491E02D0994A0E0B0E0E9E5F1E10C94AF
:1022B000BD14EC01009721F4CB010E943212B8C08A
:1022C000FC01E60FF71F9C0122503109E217F307CA
:1022D00008F4ACC0D9010D911C911197061717078E
:1022E000B0F00530110508F49FC0C80104978617A7
:1022F000970708F499C002501109061B170B0193A8
:1023000011936D937C93CF010E94C7128DC05B0126
:10231000A01AB10A4C01800E911EA0919A04B091AE
:102320009B0440E050E0E12CF12C109709F44AC0E6
:10233000A815B905D1F56D907C901197630182E0E5
:10234000C80ED11CCA14DB0480F1A3014A195B0931
:102350006A0182E0C80ED11C1296BC9012971396A7
:10236000AC91B5E0CB16D10440F0B282A383518387
:102370004083D9016D937C930AC00E5F1F4FC30148
:10238000800F911FF90191838083EB2DFA2FE114C7
:10239000F10431F0D7011396FC93EE93129744C0E9
:1023A000F0939B04E0939A043FC08D919C91119708
:1023B0004817590708F4AC017D0112960D90BC91A5
:1023C000A02DB3CF80919804909199048815990518
:1023D000E1F446175707C8F480910701909108016E
:1023E000009741F48DB79EB740910B0150910C01BD
:1023F000841B950BE817F907C8F4F0939904E09350
:102400009804F901718360830FC0CB010E943212DE
:102410007C01009759F0A801BE010E942212CE0152
:102420000E94C712C70104C0CE0102C080E090E044
:10243000CDB7DEB7EEE00C94D91481E090E0F894CB
:102440000C94FF14FB01DC0102C001900D9241507D
:102450005040D8F70895FB01DC0101900D92002057
:10246000E1F70895CF93DF938230910510F482E075
:1024700090E0E0919A04F0919B0420E030E0C0E00D
:10248000D0E0309711F14081518148175907C0F0D1
:102490004817590761F482819381209719F09B8333
:1024A0008A832BC090939B0480939A0426C02115A5
:1024B000310519F04217530718F49A01BE01DF01E4
:1024C000EF010280F381E02DDCCF2115310509F108
:1024D000281B390B2430310590F412968D919C9174
:1024E00013976115710521F0FB019383828304C06A
:1024F00090939B0480939A04FD01329644C0FD01A1
:10250000E20FF31F81939193225031092D933C9355
:102510003AC02091980430919904232B41F42091E2
:10252000090130910A013093990420939804209175
:102530000701309108012115310541F42DB73EB74F
:1025400040910B0150910C01241B350BE091980434
:10255000F0919904E217F307A0F42E1B3F0B281704
:10256000390778F0AC014E5F5F4F2417350748F00C
:102570004E0F5F1F50939904409398048193919359
:1025800002C0E0E0F0E0CF01DF91CF9108950F931A
:102590001F93CF93DF93009709F48CC0FC0132970F
:1025A0001382128200919A0410919B040115110567
:1025B00081F420813181820F931F20919804309102
:1025C00099042817390779F5F0939904E093980452
:1025D00071C0D80140E050E0AE17BF0750F412962A
:1025E0002D913C911397AD012115310509F1D901C8
:1025F000F3CF9D01DA013383228360817181860FDD
:10260000971F8217930769F4EC0128813981260FFF
:10261000371F2E5F3F4F318320838A819B819383B5
:102620008283452B29F4F0939B04E0939A0442C0E3
:102630001396FC93EE931297ED01499159919E01E7
:10264000240F351FE217F30771F480819181840F05
:10265000951F029611969C938E9382819381139677
:102660009C938E931297E0E0F0E0D80112968D9142
:102670009C911397009719F0F8018C01F6CF8D917A
:102680009C9198012E5F3F4F820F931F20919804D9
:10269000309199042817390769F4309729F410927A
:1026A0009B0410929A0402C0138212821093990420
:1026B00000939804DF91CF911F910F910895A0E0AE
:1026C000B0E0E5E6F3E10C94B9145C016B017A012A
:1026D0006115710519F0FB0191838083E114F10408
:1026E00029F0C7010297839708F0F1C0E501219610
:1026F000F5011081812F90E00E947014892B11F058
:102700005E01F4CF1D3229F42196F501118101E01B
:1027100007C01B3221F4E5012296F501118100E08A
:10272000E114F10459F1F0E1EF16F10461F4103312
:10273000E1F488818F7D883569F5198122960260E0
:1027400070E1E72EF12C88E0E816F10439F12CF461
:10275000F2E0EF16F104C9F12AC08AE0E816F104AC
:1027600079F0E0E1EE16F10411F550E1E52EF12CDF
:10277000812C912CA12C68E0B62E2CC01033C9F20C
:102780003AE0E32EF12C4CEC842E982CA82C4CE053
:10279000B42E20C010E3E114F104A9F698E0E92E6C
:1027A000F12C812C912CA12C20E1B22E13C060E0E1
:1027B00070E080E090E897010F2C000C440B550B63
:1027C0000E948C1449015A0105C0812C912CA12C26
:1027D00080E4B82E60E020E030E0A90127010F2C52
:1027E000000C660877081E01E0EDE10FEA3060F0AA
:1027F0008FEB810F8A3110F4E9EC05C08FE9810F6E
:102800008A3128F5E9EAE10F8E2F90E08E159F05B9
:10281000F4F467FD18C082169306A406B50690F07E
:10282000C301B2010E947C149B01AC012E0F311D2B
:10283000411D511D213031054105F0E85F0710F4BD
:1028400061E001C06FEF2196F1011081CCCF802FA4
:102850008170C114D10471F0662329F02197F6012B
:10286000D183C08307C001FF19C02297F601D1832D
:10287000C08314C067FF12C0811105C02FEF3FEF66
:102880004FEF5FE704C020E030E040E050E882E234
:1028900090E090939D0480939C0416C0882341F09F
:1028A00050954095309521953F4F4F4F5F4F0CC04D
:1028B00057FF0AC082E290E090939D0480939C04AD
:1028C0002FEF3FEF4FEF5FE7B901CA0104C060E0AF
:1028D00070E080E090E0CDB7DEB7E2E10C94D51473
:1028E00091110C947914803219F089508550C8F7F1
:1028F0000895992788270895DB018F939F930E945D
:10290000AE14BF91AF91A29F800D911DA39F900D1A
:10291000B29F900D11240895A1E21A2EAA1BBB1B91
:10292000FD010DC0AA1FBB1FEE1FFF1FA217B3079B
:10293000E407F50720F0A21BB30BE40BF50B661FB1
:10294000771F881F991F1A9469F760957095809575
:1029500090959B01AC01BD01CF0108950E94F01438
:10296000A59F900DB49F900DA49F800D911D1124E3
:1029700008952F923F924F925F926F927F928F9223
:102980009F92AF92BF92CF92DF92EF92FF920F93FE
:102990001F93CF93DF93CDB7DEB7CA1BDB0B0FB608
:1029A000F894DEBF0FBECDBF09942A8839884888C5
:1029B0005F846E847D848C849B84AA84B984C8845B
:1029C000DF80EE80FD800C811B81AA81B981CE0F52
:1029D000D11D0FB6F894DEBF0FBECDBFED01089537
:1029E000A29FB001B39FC001A39F700D811D112450
:1029F000911DB29F700D811D1124911D089511E04C
:102A0000CDE5D1E004C0FE010E944D112196CE35E6
:082A1000D107C9F7F894FFCFCC
:102A18003030303046460000009E04800000000040
:102A280000D007D007D0070E030A030703000000F1
:102A380000C40280027E020E030A037B02320300F6
:102A48000000006107DD062A0708071C07A8070021
:102A5800000000A101DD06F5010D028801A001209A
:102A6800000D0A0044454641554C542054455854DD
:022A780000005C
:00000001FF
