:100000000C9431010C9459010C9459010C94590130
:100010000C9459010C9459010C9459010C945901F8
:100020000C9459010C9459010C9459010C945901E8
:100030000C9459010C9459010C9459010C945901D8
:100040000C94C90A0C9459010C940E070C94E80600
:100050000C9459010C9459010C9459010C945901B8
:100060000C9459010C945901667265654D656D6F6C
:10007000727928293D006C6172676520537472693A
:100080006E673A2000000000000000000000000041
:10009000DEDE00000000080E06080E06002828FE1E
:1000A00028FE282800485C54FE547424004666301C
:1000B000180C66620000000000000000000000084C
:1000C0000E060000000000007CFE8200000082FEA0
:1000D0007C00000000002A1C3E1C2A0000001010BA
:1000E0007C7C101000000080E06000000000101018
:1000F00010101000000000C0C000000000C0603000
:10010000180C0600007CFE828282FE7C0000000447
:10011000FEFE000000C4E6A2B2929E8C0044C6928D
:100120009292FE6C0030382C26FEFE20004ECE8AC5
:100130008A8AFA720078FC969292F260000202E2D9
:10014000F21A0E06006CFE929292FE6C000C9E92C9
:1001500092D27E3C0000006C6C000000000080E643
:1001600066000000000010386CC6820000002828DD
:1001700028282828000082C66C381000000406A237
:10018000B2121E0C007CFE82BAAA3E3C00F8FC268D
:100190002626FCF800FEFE929292FE6C00387CC689
:1001A0008282C64400FEFE8282C67C3800FEFE9239
:1001B0009292828200FEFE121212020200387CC667
:1001C00082A2E6E400FEFE101010FEFE0000000019
:1001D000FEFE00000060E0808080FE7E00FEFE10DB
:1001E000386CC6C600FEFE808080808000FEFE1C4B
:1001F000381CFEFE00FEFE0C1830FEFE007CFE8267
:100200008282FE7C00FEFE1212121E0C003C7E4218
:1002100062E2FEBC00FEFE121232FECC004CDE9A00
:1002200092B2F664000606FEFEFE0606007EFEC0E2
:100230008080FEFE003E7EE0C0E07E3E00FEFE606E
:100240003060FEFE00C6EE7C387CEEC600000E1E5E
:10025000F0F01E0E0082C2E2B29A8E8600004D0DB2
:10026000470D11241FBECFEFD8E0DEBFCDBF11E098
:10027000A0E0B1E0E8E4F3E202C005900D92A235FF
:10028000B107D9F724E0A2E5B1E001C01D92AB327D
:10029000B207E1F711E0C0E3D1E004C02197FE010D
:1002A0000E94E50DCF32D107C9F70E94130B0C94C1
:1002B00097110C94000080E991E00895539A0895F5
:1002C00080E090E00895FC01858596850895CF93A0
:1002D000DF9300D000D000D0CDB7DEB7AB011C82D9
:1002E0001D821E82DC01ED91FC910190F081E02DD8
:1002F00019821A821B829E012F5F3F4FBE016C5FE5
:100300007F4F099526960FB6F894DEBF0FBECDBF7E
:10031000DF91CF9108954F925F926F927F928F926B
:10032000AF92BF92CF92EF92FF920F931F93CF9312
:10033000DF933C01EB010E94E208F301278530893D
:10034000621B730B6A307105B0F3F894E881F98190
:100350005BB158608BB1877F8BB96A859F81262FEF
:10036000291B922F2F83BF844A805B807D85FC846C
:10037000EE847F5FF394E3943E814885A984CB8427
:100380001181D20120E0C32F022F322F318111279A
:1003900088943111390F08F43FEF9195889470FDDE
:1003A000130F1795889471FD130F1795889472FD9C
:1003B000130F1795889473FD130F1795889474FD88
:1003C000130F1795889475FD130F1795889476FD74
:1003D000130F1795889477FD130F17958894232F83
:1003E0007111212F960F122F002C5BB900C017FF3F
:1003F0008BB930812227889400C000C0002C8BB9B3
:1004000031113C0F00C0002C5BB900C016FF8BB946
:1004100008F43FEFC195889400C000C0002C8BB950
:10042000F0FC230F00C0002C5BB900C015FF8BB996
:1004300027958894F1FC230F00C000C0002C8BB9D5
:100440002795889400C0002C5BB900C014FF8BB9BD
:10045000F2FC230F2795889400C000C0002C8BB9B4
:10046000F3FC230F00C0002C5BB900C013FF8BB955
:1004700027958894F4FC230F00C000C0002C8BB992
:100480002795889400C0002C5BB900C012FF8BB97F
:10049000F5FC230F2795889400C000C0002C8BB971
:1004A000F6FC230F00C0002C5BB900C011FF8BB914
:1004B00027958894F7FC230F00C000C0002C8BB94F
:1004C0002795889400C0002C5BB900C010FF8BB941
:1004D000132FF110122FCA0D00C000C0002C8BB9D1
:1004E00000C000C0002C5BB900C017FF8BB932817F
:1004F0002227889400C000C0002C8BB93111340F22
:1005000000C0002C5BB900C016FF8BB908F43FEFA8
:10051000EB0DF11D00C000C0002C8BB9E0FC230FD7
:1005200000C0002C5BB900C015FF8BB927958894DB
:10053000E1FC230F00C000C0002C8BB927958894E4
:1005400000C0002C5BB900C014FF8BB9E2FC230F84
:100550002795889400C000C0002C8BB9E3FC230FC2
:1005600000C0002C5BB900C013FF8BB9279588949D
:10057000E4FC230F00C000C0002C8BB927958894A1
:1005800000C0002C5BB900C012FF8BB9E5FC230F43
:100590002795889400C000C0002C8BB9E6FC230F7F
:1005A00000C0002C5BB900C011FF8BB9279588945F
:1005B000E7FC230F00C000C0002C8BB9279588945E
:1005C00000C0002C5BB900C010FF8BB9132FE110E5
:1005D000122F419500C000C0002C8BB94C0D00C0FB
:1005E00000C05BB900C017FF8BB931812227889406
:1005F00000C000C0002C8BB93111390F00C0002C95
:100600005BB900C016FF8BB908F43FEF9195889451
:1006100000C000C0002C8BB970FD230F00C0002C5F
:100620005BB900C015FF8BB92795889471FD230F26
:1006300000C000C0002C8BB92795889400C0002C06
:100640005BB900C014FF8BB972FD230F2795889406
:1006500000C000C0002C8BB973FD230F00C0002C1C
:100660005BB900C013FF8BB92795889474FD230FE5
:1006700000C000C0002C8BB92795889400C0002CC6
:100680005BB900C012FF8BB975FD230F27958894C5
:1006900000C000C0002C8BB976FD230F00C0002CD9
:1006A0005BB900C011FF8BB92795889477FD230FA4
:1006B00000C000C0002C8BB92795889400C0002C86
:1006C0005BB900C010FF8BB9132F7111122F960F59
:1006D00000C000C0002C8BB9119709F086CE20EE27
:1006E00031E0D2010E94CA0DDC01CB01F4E0B695E5
:1006F000A79597958795FA95D1F720E030E0A90165
:100700006AE9469E412D569E400D511D1124840FCD
:10071000951FA11DB11D893E43E09407A105B105B8
:1007200088F1885E9340A109B10942E0B695A7958A
:10073000979587954A95D1F747E0849F212D949FFF
:10074000200D311D11246091520170E0860F971F1A
:10075000820F931F40916103509162036091630384
:1007600070916403292F3327420F531F611D711DA0
:100770004093610350936203609363037093640337
:100780008093520178940E94E208F301708B67878E
:10079000DF91CF911F910F91FF90EF90CF90BF907D
:1007A000AF908F907F906F905F904F9008950F93D0
:1007B0001F93CF93DF93CDB7DEB762970FB6F89450
:1007C000DEBF0FBECDBF8C01F901DC011C968C9100
:1007D0007A8369835C834B835E834D8390819D879D
:1007E00091819E8792819F87813029F4CE01019665
:1007F0000E94400706C01C861B861A86198618862A
:100800001F8283E0888B1A8A198AD801ED91FC91A6
:100810000484F585E02DBE016F5F7F4FC801099507
:1008200062960FB6F894DEBF0FBECDBFDF91CF91B9
:100830001F910F9108950F931F93CF93DF93CDB71F
:10084000DEB762970FB6F894DEBF0FBECDBF8C0146
:10085000F901DC011C968C917A8369835C834B835C
:100860005E834D8390819D8791819E8792819F8732
:10087000813029F4CE0101960E94400706C01C86F3
:100880001B861A86198618861F82188A1A8A198A60
:10089000D801ED91FC910484F585E02DBE016F5FD8
:1008A0007F4FC801099562960FB6F894DEBF0FBE60
:1008B000CDBFDF91CF911F910F910895DF92EF92FD
:1008C000FF920F931F93CF93DF9300D0CDB7DEB786
:1008D00000E010E0DD24D39485E693E00E948005DB
:1008E000892B09F43FC085E693E00E945E058D30B8
:1008F00019F4D09253012FC098012F5F3F4F790117
:10090000063011052CF4F801E050FF4F808322C01F
:1009100089831A8200911304109114040F5F1F4FF2
:10092000B8018FE094E00E946106882399F020913D
:100930000F04309110048091130490911404BE01AF
:100940006F5F7F4F820F931F0E94C30E109314049A
:1009500000931304870162E070E080E090E00E9461
:10096000BE09BACF0F900F90DF91CF911F910F91D9
:10097000FF90EF90DF9008950F931F93CF93DF9335
:10098000EC018B016FE371E0C8010E9488061982B7
:1009900018821B821A821D821C82B801CE010E941D
:1009A0002806CE01DF91CF911F910F9108954F92AC
:1009B0005F926F927F92AF92BF92CF92DF92EF924F
:1009C000FF920F931F93CF93DF93FC01108211824C
:1009D00012824423B9F18B01075F1F4F5C01EB01C9
:1009E0002C96442E512C612C712CD8011397CC904D
:1009F000D8012D918D01CC20F9F02223E9F0822F2E
:100A000090E0A0E0B0E09C01AD012F5F3F4F4F4F61
:100A10005F4FC301B2010E9414119B01AC01D12CA4
:100A2000E12CF12CC701B6016F5F7F4F8F4F9F4FB5
:100A30000E941411D5018C93BFEFAB1ABB0A0C179F
:100A40001D0799F6CF01DF91CF911F910F91FF9074
:100A5000EF90DF90CF90BF90AF907F906F905F90BE
:100A60004F9008950895CF92DF92EF92FF920F93E7
:100A70001F93CF93DF936C017A018B01C0E0D0E02C
:100A8000CE15DF0589F0D8016D918D01D601ED916C
:100A9000FC910190F081E02DC6010995892B11F49C
:100AA0007E0102C02196ECCFC701DF91CF911F914B
:100AB0000F91FF90EF90DF90CF900895FC01918D02
:100AC000828D981761F0828DDF01A80FB11D5D96B0
:100AD0008C91928D9F5F9F73928F90E008958FEF1E
:100AE0009FEF0895FC01918D828D981731F0828DD2
:100AF000E80FF11D858D90E008958FEF9FEF089529
:100B0000FC01918D228D892F90E0805C9F4F821B8C
:100B100091098F739927089585E693E00E948005D7
:100B200021E0892B09F420E0822F0895FC01848DB7
:100B3000DF01A80FB11DA35ABF4F2C91848D90E007
:100B400001968F739927848FA689B7892C93A089E2
:100B5000B1898C9180648C93938D848D981306C099
:100B60000288F389E02D80818F7D80830895EF9244
:100B7000FF920F931F93CF93DF93EC0181E0888F57
:100B80009B8D8C8D981305C0E889F989808185FD3E
:100B900024C0F62E0B8D10E00F5F1F4F0F7311272F
:100BA000E02E8C8DE8120CC00FB607FCFACFE88956
:100BB000F989808185FFF5CFCE010E949605F1CF9E
:100BC0008B8DFE01E80FF11DE35AFF4FF0820B8F72
:100BD000EA89FB898081806207C0EE89FF89608392
:100BE000E889F98980818064808381E090E0DF91E9
:100BF000CF911F910F91FF90EF900895CF93DF93C6
:100C0000EC01888D8823C9F0EA89FB89808185FD04
:100C100005C0A889B9898C9186FD0FC00FB607FC65
:100C2000F5CF808185FFF2CFA889B9898C9185FFA6
:100C3000EDCFCE010E949605E7CFDF91CF910895C9
:100C40000E948C0581110C945E0408950E94B50EDB
:100C50000F931F93CF93DF938C01EB01FC018081F5
:100C600091810097B1F0688179816115710579F002
:100C7000428153812C813D814217530740F00E94ED
:100C8000C30E8C819D81F8019583848313C00E94DB
:100C90005F0F88819981F801918380838A819B818C
:100CA000938382838C819D819583848319821882AA
:100CB0001B821A821D821C82DF91CF911F910F919E
:100CC00008950F931F93CF93DF93EC01888199814F
:100CD000009729F02A813B812617370788F48B017A
:100CE0006F5F7F4F0E94EB0D009761F099838883BF
:100CF0001B830A832C813D81232B11F4FC0110827C
:100D000081E001C080E0DF91CF911F910F910895A4
:100D1000EF92FF920F931F93CF93DF9361157105AD
:100D200011F480E023C0FB0101900020E9F7319726
:100D3000E61BF70BDC0114960D911C91159730976B
:100D4000A1F07B01EC010E0F1F1FB8010E9461068C
:100D5000882339F3288139818C819D81B701820FE5
:100D6000931F0E94C30E1D830C8381E0DF91CF91FE
:100D70001F910F91FF90EF900895EF92FF920F93C4
:100D80001F93CF93DF93EC017B018A01BA010E948C
:100D900061062881398181110DC02115310519F0B5
:100DA000C9010E945F0F198218821D821C821B825A
:100DB0001A8206C01D830C83B701C9010E94C30EAD
:100DC000CE01DF91CF911F910F91FF90EF90089589
:100DD0001F920F920FB60F9211242F933F934F93B0
:100DE0005F936F937F938F939F93AF93BF93EF9393
:100DF000FF9385E693E00E949605FF91EF91BF91E6
:100E0000AF919F918F917F916F915F914F913F91A2
:100E10002F910F900FBE0F901F9018951F920F9259
:100E20000FB60F9211242F938F939F93EF93FF93FD
:100E3000E0917503F09176038081E0917B03F0915E
:100E40007C0382FD12C0908180917E038F5F8F733F
:100E500020917F03821751F0E0917E03F0E0EB597F
:100E6000FC4F958F80937E0301C08081FF91EF91AD
:100E70009F918F912F910F900FBE0F901F901895FB
:100E8000EF92FF920F931F93CF93DF93EC0190911A
:100E900054019F5F292F27702093540190FF02C0B7
:100EA00090E801C090E021FD9064247009F0906208
:100EB00020E1290FFE013C967E018FE0E80EF11C37
:100EC00000E011E06191662331F070E0C8010E94FA
:100ED000970D6F5F01C060E0DF0114976C93322FB4
:100EE000369F030E30E0311D1124CF0107973111D9
:100EF00003C0EC01188203C03150EC013883662333
:100F000011F061506C93EE15FF05E1F6DF91CF9182
:100F10001F910F91FF90EF900895CF92DF92EF9283
:100F2000FF920F931F9380912304909124049C01BE
:100F30002F5F3F4F309324042093230449970CF4F0
:100F400047C08FB7F894009161031091620320911C
:100F50006303309164038FBFE0912304F091240474
:100F600088EE93E0E89FB001E99F700DF89F700D47
:100F70001124072E000C880B990BC0901F04D090F1
:100F80002004E0902104F0902204A90198012C197A
:100F90003D094E095F090E942411309304042093F7
:100FA000030410922404109223042FB7F894809124
:100FB000610390916203A0916303B09164032FBF1A
:100FC00080931F0490932004A0932104B0932204E3
:100FD0001F910F91FF90EF90DF90CF90089520E048
:100FE000DC0160FF03C001C02D932D936250E0F738
:100FF0007040D0F70895CF93DF93A0E02A2F30E020
:10100000FC01448155812417350760F5EC01E88126
:10101000F981309729F410921E04EEE1F4E002C049
:10102000E20FF31F6081605243E0220F331F4A95A5
:10103000E1F7D8E06D9FB001112440E050E0FA01E3
:10104000E60FF71FEB57FF4FE491EA01C20FD31FE2
:10105000CB5CDD4FE8834F5F5F4F4830510579F738
:10106000AF5FCCCFDF91CF910895009769F0FC017D
:1010700001900020E9F73197AF01481B590BBC01E3
:1010800085E693E00C94330580E090E008958F921C
:101090009F92AF92BF920F931F93CF93DF93CDB7E1
:1010A000DEB7A1970FB6F894DEBF0FBECDBF19A271
:1010B000423008F44AE08E010F5D1F4F842E912CC0
:1010C000A12CB12CA50194010E942411E62FB90195
:1010D000CA0101501109EA3014F4E05D01C0E95C75
:1010E000D801EC93232B242B252B61F7C8010E94F8
:1010F0003508A1960FB6F894DEBF0FBECDBFDF91C5
:10110000CF911F910F91BF90AF909F908F900895B6
:10111000CF92DF92EF92FF92CF93DF936C01990F02
:10112000EE08FF08F7FE1AC0E0916503F091660330
:101130000190F081E02D6DE285E693E00995EC01E8
:1011400066277727CB016C197D098E099F094AE034
:101150000E9447087C01EC0EFD1E06C04AE0C70154
:10116000B6010E9447087C0181E491E00E943508A5
:101170008E0D9F1DDF91CF91FF90EF90DF90CF906C
:1011800008950F931F93CF93DF938C01C0E0D0E0BD
:10119000F801EC0FFD1F6491662371F0E091650387
:1011A000F09166030190F081E02D85E693E00995CA
:1011B000892B11F02196ECCFCE01DF91CF911F91B9
:1011C0000F9108953FB7F8948091160490911704F9
:1011D000A0911804B091190426B5A89B05C02F3F13
:1011E00019F00196A11DB11D3FBFBA2FA92F982F4D
:1011F0008827820F911DA11DB11DBC01CD0142E0C8
:10120000660F771F881F991F4A95D1F70895CF92CF
:10121000DF92EF92FF920F931F93CF93DF9300D053
:1012200000D000D0CDB7DEB71C821D821E82809117
:10123000050490910604A0910704B0910804892B3D
:101240008A2B8B2BE9F00E94E20800911A0410917E
:101250001B0420911C0430911D04DC01CB01801B78
:10126000910BA20BB30B0091050410910604209181
:1012700007043091080480179107A207B307B8F25A
:101280000E94E20860931A0470931B0480931C046C
:1012900090931D04E0910D04F0910E04309709F431
:1012A0005CC04091090450910A0460910B04709154
:1012B0000C0480E00995F82E00913302109134025D
:1012C0000115110569F1D8011C96EC901C978091CD
:1012D0000304909104048436910510F41C961C922A
:1012E000D801ED91FC91C080D1804F2DB801CE0185
:1012F00001960E94D704F801458556859E012F5F0F
:101300003F4FBE016C5F7F4FC801F6010995D801C0
:101310001C96EC921C9714960D911C911597D0CFAA
:101320000E948D07009133021091340201151105BE
:10133000B1F0F80182819381009749F06585768547
:101340009B01220F331F620F731F0E94EF07D8010A
:1013500014960D911C911597E9CFF12CADCF2696DF
:101360000FB6F894DEBF0FBECDBFDF91CF911F91B6
:101370000F91FF90EF90DF90CF9008958F929F9202
:10138000AF92BF92CF92DF92EF92FF926B017C01FE
:101390000E94E2084B015C01C114D104E104F10494
:1013A000F1F00E94E208DC01CB0188199909AA0931
:1013B000BB09883E9340A105B10570F321E0C21A34
:1013C000D108E108F10888EE880E83E0981EA11C80
:1013D000B11CC114D104E104F10419F7DDCFFF9071
:1013E000EF90DF90CF90BF90AF909F908F90089537
:1013F000CF92DF92EF92FF920F931F93CF93DF93E1
:1014000000D000D000D0CDB7DEB78A016C837D83D9
:101410008E830E9407098E817D8143E751E0D801C8
:10142000AB5CBD4F6C8192E04333590711F1ED90F5
:10143000F12C00E010E020E030E0FA01E00FF11FB5
:101440006701022E01C0CC0C0A94EAF7C7FE04C063
:1014500080837183628303C01082118212822F5FA6
:101460003F4F0D5F1F4F2830310539F7485E5F4F02
:10147000DACFF09002048091050490910604A091C7
:101480000704B0910804892B8A2B8B2BE9F00E946A
:10149000E20800911A0410911B0420911C04309161
:1014A0001D04DC01CB01801B910BA20BB30B00913F
:1014B0000504109106042091070430910804801758
:1014C0009107A207B307B8F20E94E20860931A04DA
:1014D00070931B0480931C0490931D04E0910D04F1
:1014E000F0910E04309759F04091090450910A048C
:1014F00060910B0470910C048F2D0995F82E0091CA
:101500003302109134020115110561F1D8011C96C6
:10151000EC901C978091030490910404843691050B
:1015200010F41C961C92D801ED91FC91C280D380DE
:101530004F2DB801CE0101960E94D704F8014585D0
:101540005685628173819E012F5F3F4FC801F6016E
:101550000995D8011C96EC921C9714960D911C913C
:101560001597D1CF0E948D0764E670E080E090E08F
:101570000E94BE0926960FB6F894DEBF0FBECDBFFF
:10158000DF91CF911F910F91FF90EF90DF90CF905F
:1015900008951F920F920FB60F9211242F933F932D
:1015A0008F939F93AF93BF93809161039091620358
:1015B000A0916303B09164033091150423E0230FDD
:1015C0002D3720F40196A11DB11D05C026E8230F7B
:1015D0000296A11DB11D2093150480936103909381
:1015E0006203A0936303B093640380911604909107
:1015F0001704A0911804B09119040196A11DB11D02
:101600008093160490931704A0931804B0931904C0
:10161000BF91AF919F918F913F912F910F900FBEEE
:101620000F901F901895CF93DF93CDB7DEB76297D9
:101630000FB6F894DEBF0FBECDBF789484B582603C
:1016400084BD84B5816084BD85B5826085BD85B566
:10165000816085BD80916E00816080936E001092E4
:10166000810080918100826080938100809181005F
:1016700081608093810080918000816080938000F0
:101680008091B10084608093B1008091B00081604E
:101690008093B00080917A00846080937A0080917A
:1016A0007A00826080937A0080917A0081608093D2
:1016B0007A0080917A00806880937A001092C1004D
:1016C000E0917503F091760382E08083E0917103ED
:1016D000F09172031082E0917303F09174038FEC28
:1016E000808310927D03E0917903F0917A0386E084
:1016F0008083E0917703F09178038081806180831B
:10170000E0917703F0917803808188608083E09195
:101710007703F0917803808180688083E09177037C
:10172000F091780380818F7D8083809168018111A1
:1017300045C010925A01109259018FEF80935D01BC
:1017400080935E0180935F018093600180936101CB
:101750008093620181E08093630110926501109291
:10176000640110925C0110925B01809133029091B0
:101770003402892B31F487E591E090933402809311
:101780003302E0915501F0915601309721F087E541
:1017900091E09583848387E591E09093560180934F
:1017A0005501109267011092660181E291E09093D9
:1017B00058018093570181E080936801E0915701BF
:1017C000F09158010480F581E02D87E591E00995BD
:1017D00083E791E090935A018093590180E490E06F
:1017E0009093650180936401E0915701F091580155
:1017F0000284F385E02D87E591E00995009729F1B2
:101800009C0140E050E060E472E48FE090E00E94D0
:10181000AB0D722F632F00910504109106042091E7
:10182000070430910804872F962FDA01801791075B
:10183000A207B30710F4D901C8018093050490935F
:101840000604A0930704B09308042AE0922E88248B
:1018500083949E012F5F3F4F7901C9018B529440C1
:101860006C019092020480915301882309F463C0B3
:101870000E940709409113045091140460910F04D1
:101880007091100485E693E00E94330581E491E0B5
:101890000E94350886E790E00E94C1086091130419
:1018A0007091140480E090E04AE00E94470881E4CF
:1018B00091E00E94350810925301809272011886BF
:1018C0001F821A8619861C861B8660910F047091F0
:1018D00010046115710541F04091130450911404F6
:1018E000CE0107960E94BD06BE01695F7F4FC7010A
:1018F0000E94BC04B7018FE094E00E942806898111
:101900009A810E945F0F8F8198850E945F0F8FE000
:1019100094E00E94FB07809113049091140490932B
:1019200071018093700140E050E063E471E08FE06A
:1019300094E00E94BD0680917201882339F10091E4
:101940007001109171010150110993E0000F111FF6
:101950009A95E1F7C8010E94880840E150E060E0F4
:1019600070E080E091E00E94F70F2B013C01A12C78
:10197000B12CA016B1060CF06BC0A501C301B201D9
:101980000E94F8099FEFA91AB90AF3CF1E861D8697
:10199000188A1F861A8A198A4CE050E064E471E0C4
:1019A000CE010D960E94BD0640E150E060E070E07F
:1019B00080E091E00E94F70F2B013C0118861F8206
:1019C0001A8619861C861B866D857E8561157105B4
:1019D00031F049895A89CE0107960E94BD06BE01A1
:1019E000695F7F4FC7010E94BC04B701CE010D960D
:1019F0000E94280689819A810E945F0F8F819885B5
:101A00000E945F0FCE010D960E94FB0709891A897B
:101A100010937101009370010150110983E0000FD0
:101A2000111F8A95E1F7C8010E948808A12CB12CEA
:101A3000A016B1064CF4A501C301B2010E94F80939
:101A40002FEFA21AB20AF4CF8D859E850E945F0FF8
:101A500088E690E00E94C1088091250490912604B8
:101A6000009719F4DA82C98205C09701281B390B47
:101A70003A83298389819A810E94880868EE73E0FD
:101A800080E090E00E94BE090E942006EACE80918C
:101A90000F04909110040C945F0FE5E6F3E01382BD
:101AA000128288EE93E0A0E0B0E084839583A68361
:101AB000B78383E391E09183808385EC90E0958701
:101AC000848784EC90E09787868780EC90E0918B08
:101AD000808B81EC90E0938B828B82EC90E0958BF5
:101AE000848B86EC90E0978B868B118E128E138EF2
:101AF000148EE2E0F4E08FEF80831282118214866C
:101B000013868FEF9FEFDC0187839087A187B287D1
:101B1000EFE0F4E0118210821382128215821482A7
:101B200040E050E063E471E0CF010C94BD0697FB08
:101B3000072E16F4009407D077FD09D00E94D10D2E
:101B400007FC05D03EF4909581959F4F08957095C0
:101B500061957F4F0895052E97FB1EF400940E9417
:101B6000C20D57FD07D00E94241107FC03D04EF48C
:101B70000C94C20D50954095309521953F4F4F4F95
:101B80005F4F089590958095709561957F4F8F4F29
:101B90009F4F08950E948811B7FF0895821B930BF1
:101BA0000895AA1BBB1B51E107C0AA1FBB1FA617A4
:101BB000B70710F0A61BB70B881F991F5A95A9F7F6
:101BC00080959095BC01CD010895EE0FFF1F059003
:101BD000F491E02D0994A0E0B0E0E1EFFDE00C9479
:101BE0005511EC01009721F4CB010E94CA0EB8C038
:101BF000FC01E60FF71F9C0122503109E217F307A1
:101C000008F4ACC0D9010D911C9111970617170764
:101C1000B0F00530110508F49FC0C801049786177D
:101C2000970708F499C002501109061B170B01937E
:101C300011936D937C93CF010E945F0F8DC05B0168
:101C4000A01AB10A4C01800E911EA0912704B091F8
:101C5000280440E050E0E12CF12C109709F44AC030
:101C6000A815B905D1F56D907C901197630182E0BC
:101C7000C80ED11CCA14DB0480F1A3014A195B0908
:101C80006A0182E0C80ED11C1296BC90129713967E
:101C9000AC91B5E0CB16D10440F0B282A38351835E
:101CA0004083D9016D937C930AC00E5F1F4FC3011F
:101CB000800F911FF90191838083EB2DFA2FE1149E
:101CC000F10431F0D7011396FC93EE93129744C0C0
:101CD000F0932804E09327043FC08D919C911197C5
:101CE0004817590708F4AC017D0112960D90BC917C
:101CF000A02DB3CF809125049091260488159905D5
:101D0000E1F446175707C8F4809107019091080144
:101D1000009741F48DB79EB740910B0150910C0193
:101D2000841B950BE817F907C8F4F0932604E09399
:101D30002504F901718360830FC0CB010E94CA0E94
:101D40007C01009759F0A801BE010E94BA0ECE0195
:101D50000E945F0FC70104C0CE0102C080E090E086
:101D6000CDB7DEB7EEE00C94711181E090E0F8940D
:101D70000C949711FB01DC0102C001900D924150BF
:101D80005040D8F70895FB01DC0101900D9200202E
:101D9000E1F70895CF93DF938230910510F482E04C
:101DA00090E0E0912704F091280420E030E0C0E0CA
:101DB000D0E0309711F14081518148175907C0F0A8
:101DC0004817590761F482819381209719F09B830A
:101DD0008A832BC0909328048093270426C0211562
:101DE000310519F04217530718F49A01BE01DF01BB
:101DF000EF010280F381E02DDCCF2115310509F1DF
:101E0000281B390B2430310590F412968D919C914A
:101E100013976115710521F0FB019383828304C040
:101E20009093280480932704FD01329644C0FD015D
:101E3000E20FF31F81939193225031092D933C932C
:101E40003AC02091250430912604232B41F420919F
:101E5000090130910A013093260420932504209132
:101E60000701309108012115310541F42DB73EB726
:101E700040910B0150910C01241B350BE09125047E
:101E8000F0912604E217F307A0F42E1B3F0B28174E
:101E9000390778F0AC014E5F5F4F2417350748F0E3
:101EA0004E0F5F1F50932604409325048193919316
:101EB00002C0E0E0F0E0CF01DF91CF9108950F93F1
:101EC0001F93CF93DF93009709F48CC0FC013297E6
:101ED0001382128200912704109128040115110524
:101EE00081F420813181820F931F2091250430914C
:101EF00026042817390779F5F0932604E093250482
:101F000071C0D80140E050E0AE17BF0750F4129600
:101F10002D913C911397AD012115310509F1D9019E
:101F2000F3CF9D01DA013383228360817181860FB3
:101F3000971F8217930769F4EC0128813981260FD6
:101F4000371F2E5F3F4F318320838A819B8193838C
:101F50008283452B29F4F0932804E093270442C0A0
:101F60001396FC93EE931297ED01499159919E01BE
:101F7000240F351FE217F30771F480819181840FDC
:101F8000951F029611969C938E938281938113964E
:101F90009C938E931297E0E0F0E0D80112968D9119
:101FA0009C911397009719F0F8018C01F6CF8D9151
:101FB0009C9198012E5F3F4F820F931F2091250423
:101FC000309126042817390769F4309729F41092C4
:101FD00028041092270402C0138212821093260450
:101FE00000932504DF91CF911F910F910895A0E0F8
:101FF000B0E0EDEFFFE00C9451115C016B017A0150
:102000006115710519F0FB0191838083E114F104DE
:1020100029F0C7010297839708F0F1C0E5012196E6
:10202000F5011081812F90E00E940811892B11F099
:102030005E01F4CF1D3229F42196F501118101E0F2
:1020400007C01B3221F4E5012296F501118100E061
:10205000E114F10459F1F0E1EF16F10461F41033E9
:10206000E1F488818F7D883569F5198122960260B7
:1020700070E1E72EF12C88E0E816F10439F12CF438
:10208000F2E0EF16F104C9F12AC08AE0E816F10483
:1020900079F0E0E1EE16F10411F550E1E52EF12CB6
:1020A000812C912CA12C68E0B62E2CC01033C9F2E3
:1020B0003AE0E32EF12C4CEC842E982CA82C4CE02A
:1020C000B42E20C010E3E114F104A9F698E0E92E43
:1020D000F12C812C912CA12C20E1B22E13C060E0B8
:1020E00070E080E090E897010F2C000C440B550B3A
:1020F0000E94241149015A0105C0812C912CA12C68
:1021000080E4B82E60E020E030E0A90127010F2C28
:10211000000C660877081E01E0EDE10FEA3060F080
:102120008FEB810F8A3110F4E9EC05C08FE9810F44
:102130008A3128F5E9EAE10F8E2F90E08E159F0590
:10214000F4F467FD18C082169306A406B50690F055
:10215000C301B2010E9414119B01AC012E0F311D6D
:10216000411D511D213031054105F0E85F0710F494
:1021700061E001C06FEF2196F1011081CCCF802F7B
:102180008170C114D10471F0662329F02197F60102
:10219000D183C08307C001FF19C02297F601D18304
:1021A000C08314C067FF12C0811105C02FEF3FEF3D
:1021B0004FEF5FE704C020E030E040E050E882E20B
:1021C00090E090932A048093290416C0882341F05C
:1021D00050954095309521953F4F4F4F5F4F0CC024
:1021E00057FF0AC082E290E090932A04809329046A
:1021F0002FEF3FEF4FEF5FE7B901CA0104C060E086
:1022000070E080E090E0CDB7DEB7E2E10C946D11B4
:1022100091110C941111803219F089508550C8F732
:102220000895992788270895DB018F939F930E9433
:102230004611BF91AF91A29F800D911DA39F900D5C
:10224000B29F900D11240895A1E21A2EAA1BBB1B68
:10225000FD010DC0AA1FBB1FEE1FFF1FA217B30772
:10226000E407F50720F0A21BB30BE40BF50B661F88
:10227000771F881F991F1A9469F76095709580954C
:1022800090959B01AC01BD01CF0108950E9488117A
:10229000A59F900DB49F900DA49F800D911D1124BA
:1022A00008952F923F924F925F926F927F928F92FA
:1022B0009F92AF92BF92CF92DF92EF92FF920F93D5
:1022C0001F93CF93DF93CDB7DEB7CA1BDB0B0FB6DF
:1022D000F894DEBF0FBECDBF09942A88398848889C
:1022E0005F846E847D848C849B84AA84B984C88432
:1022F000DF80EE80FD800C811B81AA81B981CE0F29
:10230000D11D0FB6F894DEBF0FBECDBFED0108950D
:10231000A29FB001B39FC001A39F700D811D112426
:10232000911DB29F700D811D1124911D089511E022
:10233000C0E3D1E004C0FE010E94E50D2196C13347
:08234000D107C9F7F894FFCFA3
:102348003030303046460000002B0480000000008A
:1023580000260626062606670163016001000000C4
:10236800001B04D7035E01670163015B018B010059
:10237800000000B705330580055E057205FE0520DF
:10238800000D0A0044454641554C542054455854C4
:02239800000043
:00000001FF
