:100000000C9431010C9459010C9459010C94590130
:100010000C9459010C9459010C9459010C945901F8
:100020000C9459010C9459010C9459010C945901E8
:100030000C9459010C9459010C9459010C945901D8
:100040000C94CE0A0C9459010C9413070C94ED06F1
:100050000C9459010C9459010C9459010C945901B8
:100060000C9459010C945901667265654D656D6F6C
:10007000727928293D006C6172676520537472693A
:100080006E673A2000000000000000000000000041
:10009000DEDE00000000080E06080E06002828FE1E
:1000A00028FE282800485C54FE547424004666301C
:1000B000180C66620000000000000000000000084C
:1000C0000E060000000000007CFE8200000082FEA0
:1000D0007C00000000002A1C3E1C2A0000001010BA
:1000E0007C7C101000000080E06000000000101018
:1000F00010101000000000C0C000000000C0603000
:10010000180C0600007CFE828282FE7C0000000447
:10011000FEFE000000C4E6A2B2929E8C0044C6928D
:100120009292FE6C0030382C26FEFE20004ECE8AC5
:100130008A8AFA720078FC969292F260000202E2D9
:10014000F21A0E06006CFE929292FE6C000C9E92C9
:1001500092D27E3C0000006C6C000000000080E643
:1001600066000000000010386CC6820000002828DD
:1001700028282828000082C66C381000000406A237
:10018000B2121E0C007CFE82BAAA3E3C00F8FC268D
:100190002626FCF800FEFE929292FE6C00387CC689
:1001A0008282C64400FEFE8282C67C3800FEFE9239
:1001B0009292828200FEFE121212020200387CC667
:1001C00082A2E6E400FEFE101010FEFE0000000019
:1001D000FEFE00000060E0808080FE7E00FEFE10DB
:1001E000386CC6C600FEFE808080808000FEFE1C4B
:1001F000381CFEFE00FEFE0C1830FEFE007CFE8267
:100200008282FE7C00FEFE1212121E0C003C7E4218
:1002100062E2FEBC00FEFE121232FECC004CDE9A00
:1002200092B2F664000606FEFEFE0606007EFEC0E2
:100230008080FEFE003E7EE0C0E07E3E00FEFE606E
:100240003060FEFE00C6EE7C387CEEC600000E1E5E
:10025000F0F01E0E0082C2E2B29A8E860000520DAD
:100260004C0D11241FBECFEFD8E0DEBFCDBF11E093
:10027000A0E0B1E0E2E5F3E202C005900D92A43502
:10028000B107D9F724E0A4E5B1E001C01D92AD3E6D
:10029000B207E1F711E0C0E3D1E004C02197FE010D
:1002A0000E94EA0DCF32D107C9F70E94180B0C94B7
:1002B0009C110C94000080E991E00895539A0895F0
:1002C00080E090E00895FC01858596850895CF93A0
:1002D000DF9300D000D000D0CDB7DEB7AB011C82D9
:1002E0001D821E82DC01ED91FC910190F081E02DD8
:1002F00019821A821B829E012F5F3F4FBE016C5FE5
:100300007F4F099526960FB6F894DEBF0FBECDBF7E
:10031000DF91CF9108954F925F926F927F928F926B
:10032000AF92BF92CF92EF92FF920F931F93CF9312
:10033000DF933C01EB010E94E708F3012785308938
:10034000621B730B6A307105B0F3F894E881F98190
:100350005BB158608BB1877F8BB96A859F81262FEF
:10036000291B922F2F83BF844A805B807D85FC846C
:10037000EE847F5FF394E3943E814885A984CB8427
:100380001181D20120E0C32F022F322F318111279A
:1003900088943111390F08F43FEF9195889470FDDE
:1003A000130F1795889471FD130F1795889472FD9C
:1003B000130F1795889473FD130F1795889474FD88
:1003C000130F1795889475FD130F1795889476FD74
:1003D000130F1795889477FD130F17958894232F83
:1003E0007111212F960F122F002C5BB900C017FF3F
:1003F0008BB930812227889400C000C0002C8BB9B3
:1004000031113C0F00C0002C5BB900C016FF8BB946
:1004100008F43FEFC195889400C000C0002C8BB950
:10042000F0FC230F00C0002C5BB900C015FF8BB996
:1004300027958894F1FC230F00C000C0002C8BB9D5
:100440002795889400C0002C5BB900C014FF8BB9BD
:10045000F2FC230F2795889400C000C0002C8BB9B4
:10046000F3FC230F00C0002C5BB900C013FF8BB955
:1004700027958894F4FC230F00C000C0002C8BB992
:100480002795889400C0002C5BB900C012FF8BB97F
:10049000F5FC230F2795889400C000C0002C8BB971
:1004A000F6FC230F00C0002C5BB900C011FF8BB914
:1004B00027958894F7FC230F00C000C0002C8BB94F
:1004C0002795889400C0002C5BB900C010FF8BB941
:1004D000132FF110122FCA0D00C000C0002C8BB9D1
:1004E00000C000C0002C5BB900C017FF8BB932817F
:1004F0002227889400C000C0002C8BB93111340F22
:1005000000C0002C5BB900C016FF8BB908F43FEFA8
:10051000EB0DF11D00C000C0002C8BB9E0FC230FD7
:1005200000C0002C5BB900C015FF8BB927958894DB
:10053000E1FC230F00C000C0002C8BB927958894E4
:1005400000C0002C5BB900C014FF8BB9E2FC230F84
:100550002795889400C000C0002C8BB9E3FC230FC2
:1005600000C0002C5BB900C013FF8BB9279588949D
:10057000E4FC230F00C000C0002C8BB927958894A1
:1005800000C0002C5BB900C012FF8BB9E5FC230F43
:100590002795889400C000C0002C8BB9E6FC230F7F
:1005A00000C0002C5BB900C011FF8BB9279588945F
:1005B000E7FC230F00C000C0002C8BB9279588945E
:1005C00000C0002C5BB900C010FF8BB9132FE110E5
:1005D000122F419500C000C0002C8BB94C0D00C0FB
:1005E00000C05BB900C017FF8BB931812227889406
:1005F00000C000C0002C8BB93111390F00C0002C95
:100600005BB900C016FF8BB908F43FEF9195889451
:1006100000C000C0002C8BB970FD230F00C0002C5F
:100620005BB900C015FF8BB92795889471FD230F26
:1006300000C000C0002C8BB92795889400C0002C06
:100640005BB900C014FF8BB972FD230F2795889406
:1006500000C000C0002C8BB973FD230F00C0002C1C
:100660005BB900C013FF8BB92795889474FD230FE5
:1006700000C000C0002C8BB92795889400C0002CC6
:100680005BB900C012FF8BB975FD230F27958894C5
:1006900000C000C0002C8BB976FD230F00C0002CD9
:1006A0005BB900C011FF8BB92795889477FD230FA4
:1006B00000C000C0002C8BB92795889400C0002C86
:1006C0005BB900C010FF8BB9132F7111122F960F59
:1006D00000C000C0002C8BB9119709F086CE20EE27
:1006E00031E0D2010E94CF0DDC01CB01F4E0B695E0
:1006F000A79597958795FA95D1F720E030E0A90165
:100700006AE9469E412D569E400D511D1124840FCD
:10071000951FA11DB11D893E43E09407A105B105B8
:1007200088F1885E9340A109B10942E0B695A7958A
:10073000979587954A95D1F747E0849F212D949FFF
:10074000200D311D11246091540170E0860F971F18
:10075000820F931F4091230450912404609125043B
:1007600070912604292F3327420F531F611D711DDD
:10077000409323045093240460932504709326042B
:100780008093540178940E94E708F301708B678787
:10079000DF91CF911F910F91FF90EF90CF90BF907D
:1007A000AF908F907F906F905F904F9008950F93D0
:1007B0001F93CF93DF93CDB7DEB762970FB6F89450
:1007C000DEBF0FBECDBF8C01F901DC011C968C9100
:1007D0007A8369835C834B835E834D8390819D879D
:1007E00091819E8792819F87813029F4CE01019665
:1007F0000E94450706C01C861B861A861986188625
:100800001F8283E0888B1A8A198AD801ED91FC91A6
:100810000484F585E02DBE016F5F7F4FC801099507
:1008200062960FB6F894DEBF0FBECDBFDF91CF91B9
:100830001F910F9108950F931F93CF93DF93CDB71F
:10084000DEB762970FB6F894DEBF0FBECDBF8C0146
:10085000F901DC011C968C917A8369835C834B835C
:100860005E834D8390819D8791819E8792819F8732
:10087000813029F4CE0101960E94450706C01C86EE
:100880001B861A86198618861F82188A1A8A198A60
:10089000D801ED91FC910484F585E02DBE016F5FD8
:1008A0007F4FC801099562960FB6F894DEBF0FBE60
:1008B000CDBFDF91CF911F910F910895DF92EF92FD
:1008C000FF920F931F93CF93DF9300D0CDB7DEB786
:1008D00000E010E0DD24D39487E294E00E948505D7
:1008E000892B09F43FC087E294E00E9463058D30B4
:1008F00019F4D09255012FC098012F5F3F4F790115
:10090000063011052CF4F801E050FF4F808322C01F
:1009100089831A820091D5041091D6040F5F1F4F6E
:10092000B80181ED94E00E946606882399F0209139
:10093000D1043091D2048091D5049091D604BE01A7
:100940006F5F7F4F820F931F0E94C80E1093D604D3
:100950000093D504870162E070E080E090E00E949F
:10096000C309BACF0F900F90DF91CF911F910F91D4
:10097000FF90EF90DF9008950F931F93CF93DF9335
:10098000EC018B016FE371E0C8010E948D0661E408
:1009900071E0C8010E948D06198218821B821A829A
:1009A0001D821C82B801CE010E942D06CE01DF916E
:1009B000CF911F910F9108954F925F926F927F9206
:1009C000AF92BF92CF92DF92EF92FF920F931F935D
:1009D000CF93DF93FC011082118212824423B9F17C
:1009E0008B01075F1F4F5C01EB012C96442E512CAD
:1009F000612C712CD8011397CC90D8012D918D01C9
:100A0000CC20F9F02223E9F0822F90E0A0E0B0E0C2
:100A10009C01AD012F5F3F4F4F4F5F4FC301B201AC
:100A20000E9419119B01AC01D12CE12CF12CC701C2
:100A3000B6016F5F7F4F8F4F9F4F0E941911D501F5
:100A40008C93BFEFAB1ABB0A0C171D0799F6CF01A9
:100A5000DF91CF911F910F91FF90EF90DF90CF909A
:100A6000BF90AF907F906F905F904F9008950895E2
:100A7000CF92DF92EF92FF920F931F93CF93DF936A
:100A80006C017A018B01C0E0D0E0CE15DF0589F062
:100A9000D8016D918D01D601ED91FC910190F0810D
:100AA000E02DC6010995892B11F47E0102C0219623
:100AB000ECCFC701DF91CF911F910F91FF90EF9085
:100AC000DF90CF900895FC01918D828D981761F091
:100AD000828DDF01A80FB11D5D968C91928D9F5F75
:100AE0009F73928F90E008958FEF9FEF0895FC0120
:100AF000918D828D981731F0828DE80FF11D858DD3
:100B000090E008958FEF9FEF0895FC01918D228D65
:100B1000892F90E0805C9F4F821B91098F739927EA
:100B2000089587E294E00E94850521E0892B09F46D
:100B300020E0822F0895FC01848DDF01A80FB11DF4
:100B4000A35ABF4F2C91848D90E001968F73992703
:100B5000848FA689B7892C93A089B1898C918064F0
:100B60008C93938D848D981306C00288F389E02DB1
:100B700080818F7D80830895EF92FF920F931F9362
:100B8000CF93DF93EC0181E0888F9B8D8C8D981340
:100B900005C0E889F989808185FD24C0F62E0B8D7A
:100BA00010E00F5F1F4F0F731127E02E8C8DE8129E
:100BB0000CC00FB607FCFACFE889F989808185FF60
:100BC000F5CFCE010E949B05F1CF8B8DFE01E80F82
:100BD000F11DE35AFF4FF0820B8FEA89FB89808178
:100BE000806207C0EE89FF896083E889F989808186
:100BF0008064808381E090E0DF91CF911F910F911D
:100C0000FF90EF900895CF93DF93EC01888D8823B8
:100C1000C9F0EA89FB89808185FD05C0A889B98969
:100C20008C9186FD0FC00FB607FCF5CF808185FF44
:100C3000F2CFA889B9898C9185FFEDCFCE010E94B2
:100C40009B05E7CFDF91CF9108950E949105811117
:100C50000C945E0408950E94BA0E0F931F93CF93D5
:100C6000DF938C01EB01FC01808191810097B1F051
:100C7000688179816115710579F0428153812C81F8
:100C80003D814217530740F00E94C80E8C819D8120
:100C9000F8019583848313C00E94640F8881998131
:100CA000F801918380838A819B81938382838C81E5
:100CB0009D8195838483198218821B821A821D82EA
:100CC0001C82DF91CF911F910F9108950F931F9375
:100CD000CF93DF93EC0188819981009729F02A81D5
:100CE0003B812617370788F48B016F5F7F4F0E9487
:100CF000F00D009761F0998388831B830A832C8110
:100D00003D81232B11F4FC01108281E001C080E0C1
:100D1000DF91CF911F910F910895EF92FF920F9362
:100D20001F93CF93DF936115710511F480E023C009
:100D3000FB0101900020E9F73197E61BF70BDC017E
:100D400014960D911C9115973097A1F07B01EC0141
:100D50000E0F1F1FB8010E946606882339F32881F1
:100D600039818C819D81B701820F931F0E94C80E2B
:100D70001D830C8381E0DF91CF911F910F91FF9034
:100D8000EF900895EF92FF920F931F93CF93DF930D
:100D9000EC017B018A01BA010E9466062881398133
:100DA00081110DC02115310519F0C9010E94640F90
:100DB000198218821D821C821B821A8206C01D8322
:100DC0000C83B701C9010E94C80ECE01DF91CF91FB
:100DD0001F910F91FF90EF9008951F920F920FB601
:100DE0000F9211242F933F934F935F936F937F93B1
:100DF0008F939F93AF93BF93EF93FF9387E294E01A
:100E00000E949B05FF91EF91BF91AF919F918F91B0
:100E10007F916F915F914F913F912F910F900FBEF6
:100E20000F901F9018951F920F920FB60F921124DA
:100E30002F938F939F93EF93FF93E0913704F0915B
:100E400038048081E0913D04F0913E0482FD12C09F
:100E50009081809140048F5F8F73209141048217AD
:100E600051F0E0914004F0E0E95DFB4F958F8093F5
:100E7000400401C08081FF91EF919F918F912F914C
:100E80000F900FBE0F901F901895EF92FF920F9347
:100E90001F93CF93DF93EC01909156019F5F292F11
:100EA00027702093560190FF02C090E801C090E0A7
:100EB00021FD9064247009F0906220E1290FFE0169
:100EC0003C967E018FE0E80EF11C00E011E061919C
:100ED000662331F070E0C8010E949C0D6F5F01C075
:100EE00060E0DF0114976C93322F369F030E30E0E1
:100EF000311D1124CF010797311103C0EC01188275
:100F000003C03150EC013883662311F061506C93BB
:100F1000EE15FF05E1F6DF91CF911F910F91FF9044
:100F2000EF900895CF92DF92EF92FF920F931F936D
:100F30008091E5049091E6049C012F5F3F4F309330
:100F4000E6042093E50449970CF447C08FB7F89462
:100F5000009123041091240420912504309126044B
:100F60008FBFE091E504F091E60488EE93E0E89FFE
:100F7000B001E99F700DF89F700D1124072E000C31
:100F8000880B990BC090E104D090E204E090E30458
:100F9000F090E404A90198012C193D094E095F095C
:100FA0000E9429113093C6042093C5041092E604D0
:100FB0001092E5042FB7F8948091230490912404B3
:100FC000A0912504B09126042FBF8093E104909353
:100FD000E204A093E304B093E4041F910F91FF9007
:100FE000EF90DF90CF90089520E0DC0160FF03C018
:100FF00001C02D932D936250E0F77040D0F7089513
:10100000CF93DF93A0E02A2F30E0FC01448155818B
:101010002417350760F5EC01E881F981309729F450
:101020001092E004E0EEF4E002C0E20FF31F6081F2
:10103000605243E0220F331F4A95E1F7D8E06D9FDD
:10104000B001112440E050E0FA01E60FF71FEB5722
:10105000FF4FE491EA01C20FD31FC950DD4FE8836F
:101060004F5F5F4F4830510579F7AF5FCCCFDF91CD
:10107000CF910895009769F0FC0101900020E9F7F5
:101080003197AF01481B590BBC0187E294E00C94E7
:10109000380580E090E008958F929F92AF92BF92C2
:1010A0000F931F93CF93DF93CDB7DEB7A1970FB602
:1010B000F894DEBF0FBECDBF19A2423008F44AE05B
:1010C0008E010F5D1F4F842E912CA12CB12CA501F8
:1010D00094010E942911E62FB901CA01015011099A
:1010E000EA3014F4E05D01C0E95CD801EC93232BF5
:1010F000242B252B61F7C8010E943A08A1960FB650
:10110000F894DEBF0FBECDBFDF91CF911F910F913D
:10111000BF90AF909F908F900895CF92DF92EF9203
:10112000FF92CF93DF936C01990FEE08FF08F7FE53
:101130001AC0E0912704F09128040190F081E02D7D
:101140006DE287E294E00995EC0166277727CB01F1
:101150006C197D098E099F094AE00E944C087C01A8
:10116000EC0EFD1E06C04AE0C701B6010E944C0805
:101170007C0183E491E00E943A088E0D9F1DDF916F
:10118000CF91FF90EF90DF90CF9008950F931F9332
:10119000CF93DF938C01C0E0D0E0F801EC0FFD1F8E
:1011A0006491662371F0E0912704F0912804019086
:1011B000F081E02D87E294E00995892B11F02196CA
:1011C000ECCFCE01DF91CF911F910F9108953FB7E2
:1011D000F8948091D8049091D904A091DA04B09148
:1011E000DB0426B5A89B05C02F3F19F00196A11D71
:1011F000B11D3FBFBA2FA92F982F8827820F911DAD
:10120000A11DB11DBC01CD0142E0660F771F881FF3
:10121000991F4A95D1F70895CF92DF92EF92FF92EE
:101220000F931F93CF93DF9300D000D000D0CDB7A2
:10123000DEB71C821D821E828091C7049091C80473
:10124000A091C904B091CA04892B8A2B8B2BE9F099
:101250000E94E7080091DC041091DD042091DE0477
:101260003091DF04DC01CB01801B910BA20BB30B8F
:101270000091C7041091C8042091C9043091CA0498
:1012800080179107A207B307B8F20E94E70860939E
:10129000DC047093DD048093DE049093DF04E0911E
:1012A000CF04F091D004309709F45CC04091CB0496
:1012B0005091CC046091CD047091CE0480E00995EA
:1012C000F82E0091F5021091F6020115110569F151
:1012D000D8011C96EC901C978091C5049091C6048F
:1012E0008436910510F41C961C92D801ED91FC9166
:1012F000C080D1804F2DB801CE0101960E94DC0440
:10130000F801458556859E012F5F3F4FBE016C5FFA
:101310007F4FC801F6010995D8011C96EC921C97E5
:1013200014960D911C911597D0CF0E9492070091B1
:10133000F5021091F60201151105B1F0F801828154
:101340009381009749F0658576859B01220F331FB5
:10135000620F731F0E94F407D80114960D911C911F
:101360001597E9CFF12CADCF26960FB6F894DEBFD6
:101370000FBECDBFDF91CF911F910F91FF90EF90E6
:10138000DF90CF9008958F929F92AF92BF92CF92AD
:10139000DF92EF92FF926B017C010E94E7084B0104
:1013A0005C01C114D104E104F104F1F00E94E708EA
:1013B000DC01CB0188199909AA09BB09883E934031
:1013C000A105B10570F321E0C21AD108E108F108C6
:1013D00088EE880E83E0981EA11CB11CC114D104B4
:1013E000E104F10419F7DDCFFF90EF90DF90CF908B
:1013F000BF90AF909F908F900895CF92DF92EF9221
:10140000FF920F931F93CF93DF9300D000D000D0B3
:10141000CDB7DEB78A016C837D838E830E940C0971
:101420008E817D8145E751E0D801A950BD4F6C8187
:1014300092E0453F590711F1ED90F12C00E010E0EA
:1014400020E030E0FA01E00FF11F6701022E01C039
:10145000CC0C0A94EAF7C7FE04C0808371836283D0
:1014600003C01082118212822F5F3F4F0D5F1F4F0A
:101470002830310539F7485E5F4FDACFF090C40469
:101480008091C7049091C804A091C904B091CA0486
:10149000892B8A2B8B2BE9F00E94E7080091DC0452
:1014A0001091DD042091DE043091DF04DC01CB01DA
:1014B000801B910BA20BB30B0091C7041091C804C1
:1014C0002091C9043091CA0480179107A207B3077D
:1014D000B8F20E94E7086093DC047093DD04809307
:1014E000DE049093DF04E091CF04F091D0043097B4
:1014F00059F04091CB045091CC046091CD0470918F
:10150000CE048F2D0995F82E0091F5021091F60268
:101510000115110561F1D8011C96EC901C97809182
:10152000C5049091C6048436910510F41C961C9253
:10153000D801ED91FC91C280D3804F2DB801CE012E
:1015400001960E94DC04F80145855685628173810D
:101550009E012F5F3F4FC801F6010995D8011C96E7
:10156000EC921C9714960D911C911597D1CF0E9467
:10157000920764E670E080E090E00E94C30926963E
:101580000FB6F894DEBF0FBECDBFDF91CF911F9194
:101590000F91FF90EF90DF90CF9008951F920F92E0
:1015A0000FB60F9211242F933F938F939F93AF9376
:1015B000BF938091230490912404A0912504B091BD
:1015C00026043091D70423E0230F2D3720F4019611
:1015D000A11DB11D05C026E8230F0296A11DB11D56
:1015E0002093D7048093230490932404A09325048C
:1015F000B09326048091D8049091D904A091DA0484
:10160000B091DB040196A11DB11D8093D804909385
:10161000D904A093DA04B093DB04BF91AF919F91FA
:101620008F913F912F910F900FBE0F901F901895A3
:10163000CF93DF93CDB7DEB762970FB6F894DEBFD6
:101640000FBECDBF789484B5826084BD84B58160BF
:1016500084BD85B5826085BD85B5816085BD80917D
:101660006E00816080936E001092810080918100F5
:1016700082608093810080918100816080938100ED
:10168000809180008160809380008091B1008460AF
:101690008093B1008091B00081608093B000809110
:1016A0007A00846080937A0080917A0082608093CF
:1016B0007A0080917A00816080937A0080917A002C
:1016C000806880937A001092C100E0913704F09115
:1016D000380482E08083E0913304F0913404108276
:1016E000E0913504F09136048FEC808310923F0432
:1016F000E0913B04F0913C0486E08083E091390462
:10170000F0913A04808180618083E0913904F09106
:101710003A04808188608083E0913904F0913A0432
:10172000808180688083E0913904F0913A0480815F
:101730008F7D808380916A01811145C010925C0188
:1017400010925B018FEF80935F0180936001809323
:10175000610180936201809363018093640181E061
:1017600080936501109267011092660110925E01EC
:1017700010925D018091F5029091F602892B31F46F
:1017800089E591E09093F6028093F502E09157018C
:10179000F0915801309721F089E591E09583848399
:1017A00089E591E090935801809357011092690167
:1017B0001092680181E291E090935A01809359015F
:1017C00081E080936A01E0915901F0915A0104800F
:1017D000F581E02D89E591E0099585E791E0909309
:1017E0005C0180935B0180E890E0909367018093B7
:1017F0006601E0915901F0915A010284F385E02DD0
:1018000089E591E00995009729F19C0140E050E0BD
:1018100060E472E48FE090E00E94B00D722F632FBD
:101820000091C7041091C8042091C9043091CA04E2
:10183000872F962FDA0180179107A207B30710F4BC
:10184000D901C8018093C7049093C804A093C90428
:10185000B093CA042AE0922E882483949E012F5FBD
:101860003F4F7901C9018D5E94406C019092C40490
:1018700080915501882309F463C00E940C094091AE
:10188000D5045091D6046091D1047091D20487E2BE
:1018900094E00E94380583E491E00E943A0886E7CC
:1018A00090E00E94C6086091D5047091D60480E053
:1018B00090E04AE00E944C0883E491E00E943A08DC
:1018C000109255018092740118861F821A8619861B
:1018D0001C861B866091D1047091D204611571053C
:1018E00041F04091D5045091D604CE0107960E9454
:1018F000C206BE01695F7F4FC7010E94BC04B701E9
:1019000081ED94E00E942D0689819A810E94640FE6
:101910008F8198850E94640F81ED94E00E940008F9
:101920008091D5049091D6049093730180937201B5
:1019300040E050E065E471E081ED94E00E94C20671
:1019400080917401882339F1009172011091730123
:101950000250110993E0000F111F9A95E1F7C80199
:101960000E948D0840E150E060E070E080E091E08E
:101970000E94FC0F2B013C01A12CB12CA016B1063A
:101980000CF06BC0A501C301B2010E94FD099FEFDD
:10199000A91AB90AF3CF1E861D86188A1F861A8ACD
:1019A000198A4CE050E066E471E0CE010D960E9489
:1019B000C20640E150E060E070E080E091E00E940B
:1019C000FC0F2B013C0118861F821A8619861C8683
:1019D0001B866D857E856115710531F049895A89AF
:1019E000CE0107960E94C206BE01695F7F4FC70104
:1019F0000E94BC04B701CE010D960E942D0689817C
:101A00009A810E94640F8F8198850E94640FCE0195
:101A10000D960E94000809891A891093730100939A
:101A200072010250110983E0000F111F8A95E1F73E
:101A3000C8010E948D08A12CB12CA016B1064CF44F
:101A4000A501C301B2010E94FD092FEFA21AB20A3B
:101A5000F4CF8D859E850E94640F88E690E00E94F9
:101A6000C6088091E7049091E804009719F4DA829F
:101A7000C98205C09701281B390B3A8329838981C4
:101A80009A810E948D0864EF71E080E090E00E94EE
:101A9000C3090E942506EACE8091D1049091D20418
:101AA0000C94640FE7E2F4E01382128288EE93E074
:101AB000A0E0B0E084839583A683B78383E391E0BD
:101AC0009183808385EC90E09587848784EC90E017
:101AD0009787868780EC90E0918B808B81EC90E0FB
:101AE000938B828B82EC90E0958B848B86EC90E0DC
:101AF000978B868B118E128E138E148EE4ECF4E08D
:101B00008FEF808312821182148613868FEF9FEFEE
:101B1000DC0187839087A187B287E1EDF4E0118231
:101B20001082138212821582148240E050E065E434
:101B300071E0CF010C94C20697FB072E16F40094B7
:101B400007D077FD09D00E94D60D07FC05D03EF4E2
:101B5000909581959F4F0895709561957F4F089559
:101B6000052E97FB1EF400940E94C70D57FD07D069
:101B70000E94291107FC03D04EF40C94C70D509518
:101B80004095309521953F4F4F4F5F4F0895909569
:101B90008095709561957F4F8F4F9F4F08950E945C
:101BA0008D11B7FF0895821B930B0895AA1BBB1BD1
:101BB00051E107C0AA1FBB1FA617B70710F0A61B4D
:101BC000B70B881F991F5A95A9F780959095BC016E
:101BD000CD010895EE0FFF1F0590F491E02D0994BB
:101BE000A0E0B0E0E6EFFDE00C945A11EC010097A4
:101BF00021F4CB010E94CF0EB8C0FC01E60FF71F05
:101C00009C0122503109E217F30708F4ACC0D90156
:101C10000D911C91119706171707B0F005301105AB
:101C200008F49FC0C80104978617970708F499C065
:101C300002501109061B170B019311936D937C93AE
:101C4000CF010E94640F8DC05B01A01AB10A4C0144
:101C5000800E911EA091E904B091EA0440E050E0AA
:101C6000E12CF12C109709F44AC0A815B905D1F55B
:101C70006D907C901197630182E0C80ED11CCA144C
:101C8000DB0480F1A3014A195B096A0182E0C80EF6
:101C9000D11C1296BC9012971396AC91B5E0CB165E
:101CA000D10440F0B282A38351834083D9016D9364
:101CB0007C930AC00E5F1F4FC301800F911FF90173
:101CC00091838083EB2DFA2FE114F10431F0D701D9
:101CD0001396FC93EE93129744C0F093EA04E093BA
:101CE000E9043FC08D919C9111974817590708F45A
:101CF000AC017D0112960D90BC91A02DB3CF8091C7
:101D0000E7049091E80488159905E1F44617570710
:101D1000C8F48091070190910801009741F48DB7B4
:101D20009EB740910B0150910C01841B950BE81755
:101D3000F907C8F4F093E804E093E704F90171832C
:101D400060830FC0CB010E94CF0E7C01009759F039
:101D5000A801BE010E94BF0ECE010E94640FC70100
:101D600004C0CE0102C080E090E0CDB7DEB7EEE067
:101D70000C94761181E090E0F8940C949C11FB0196
:101D8000DC0102C001900D9241505040D8F70895F7
:101D9000FB01DC0101900D920020E1F70895CF9343
:101DA000DF938230910510F482E090E0E091E90445
:101DB000F091EA0420E030E0C0E0D0E0309711F18B
:101DC0004081518148175907C0F04817590761F4FD
:101DD00082819381209719F09B838A832BC09093F3
:101DE000EA048093E90426C02115310519F0421751
:101DF000530718F49A01BE01DF01EF010280F3815D
:101E0000E02DDCCF2115310509F1281B390B2430D9
:101E1000310590F412968D919C911397611571057F
:101E200021F0FB019383828304C09093EA048093A2
:101E3000E904FD01329644C0FD01E20FF31F8193D6
:101E40009193225031092D933C933AC02091E7049D
:101E50003091E804232B41F42091090130910A01CB
:101E60003093E8042093E7042091070130910801A2
:101E70002115310541F42DB73EB740910B0150912A
:101E80000C01241B350BE091E704F091E804E21704
:101E9000F307A0F42E1B3F0B2817390778F0AC018D
:101EA0004E5F5F4F2417350748F04E0F5F1F50936A
:101EB000E8044093E7048193919302C0E0E0F0E0EE
:101EC000CF01DF91CF9108950F931F93CF93DF93AD
:101ED000009709F48CC0FC013297138212820091A2
:101EE000E9041091EA040115110581F42081318182
:101EF000820F931F2091E7043091E80428173907D7
:101F000079F5F093E804E093E70471C0D80140E06C
:101F100050E0AE17BF0750F412962D913C911397E5
:101F2000AD012115310509F1D901F3CF9D01DA0188
:101F30003383228360817181860F971F82179307F5
:101F400069F4EC0128813981260F371F2E5F3F4F3E
:101F5000318320838A819B8193838283452B29F45B
:101F6000F093EA04E093E90442C01396FC93EE93E5
:101F70001297ED01499159919E01240F351FE217E7
:101F8000F30771F480819181840F951F0296119659
:101F90009C938E938281938113969C938E93129738
:101FA000E0E0F0E0D80112968D919C911397009794
:101FB00019F0F8018C01F6CF8D919C9198012E5F5C
:101FC0003F4F820F931F2091E7043091E8042817B8
:101FD000390769F4309729F41092EA041092E90461
:101FE00002C0138212821093E8040093E704DF9189
:101FF000CF911F910F910895A0E0B0E0E2E0F0E1F1
:102000000C9456115C016B017A016115710519F090
:10201000FB0191838083E114F10429F0C701029749
:10202000839708F0F1C0E5012196F5011081812F19
:1020300090E00E940D11892B11F05E01F4CF1D324A
:1020400029F42196F501118101E007C01B3221F42A
:10205000E5012296F501118100E0E114F10459F146
:10206000F0E1EF16F10461F41033E1F488818F7D23
:10207000883569F519812296026070E1E72EF12C0E
:1020800088E0E816F10439F12CF4F2E0EF16F104DF
:10209000C9F12AC08AE0E816F10479F0E0E1EE1611
:1020A000F10411F550E1E52EF12C812C912CA12C9D
:1020B00068E0B62E2CC01033C9F23AE0E32EF12CC2
:1020C0004CEC842E982CA82C4CE0B42E20C010E3AD
:1020D000E114F104A9F698E0E92EF12C812C912C61
:1020E000A12C20E1B22E13C060E070E080E090E807
:1020F00097010F2C000C440B550B0E94291149012C
:102100005A0105C0812C912CA12C80E4B82E60E0EE
:1021100020E030E0A90127010F2C000C66087708A9
:102120001E01E0EDE10FEA3060F08FEB810F8A31A4
:1021300010F4E9EC05C08FE9810F8A3128F5E9EA4E
:10214000E10F8E2F90E08E159F05F4F467FD18C007
:1021500082169306A406B50690F0C301B2010E9450
:1021600019119B01AC012E0F311D411D511D213054
:1021700031054105F0E85F0710F461E001C06FEF41
:102180002196F1011081CCCF802F8170C114D10430
:1021900071F0662329F02197F601D183C08307C02F
:1021A00001FF19C02297F601D183C08314C067FFD5
:1021B00012C0811105C02FEF3FEF4FEF5FE704C062
:1021C00020E030E040E050E882E290E09093EC04C0
:1021D0008093EB0416C0882341F0509540953095CC
:1021E00021953F4F4F4F5F4F0CC057FF0AC082E20F
:1021F00090E09093EC048093EB042FEF3FEF4FEFD0
:102200005FE7B901CA0104C060E070E080E090E0DF
:10221000CDB7DEB7E2E10C94721191110C94161156
:10222000803219F089508550C8F70895992788277A
:102230000895DB018F939F930E944B11BF91AF9143
:10224000A29F800D911DA39F900DB29F900D112410
:102250000895A1E21A2EAA1BBB1BFD010DC0AA1FE7
:10226000BB1FEE1FFF1FA217B307E407F50720F0FF
:10227000A21BB30BE40BF50B661F771F881F991F7A
:102280001A9469F760957095809590959B01AC01C3
:10229000BD01CF0108950E948D11A59F900DB49F9F
:1022A000900DA49F800D911D112408952F923F92AF
:1022B0004F925F926F927F928F929F92AF92BF9256
:1022C000CF92DF92EF92FF920F931F93CF93DF9302
:1022D000CDB7DEB7CA1BDB0B0FB6F894DEBF0FBE5F
:1022E000CDBF09942A88398848885F846E847D84AC
:1022F0008C849B84AA84B984C884DF80EE80FD80AE
:102300000C811B81AA81B981CE0FD11D0FB6F89423
:10231000DEBF0FBECDBFED010895A29FB001B39FF8
:10232000C001A39F700D811D1124911DB29F700DDE
:10233000811D1124911D089511E0C0E3D1E004C076
:10234000FE010E94EA0D2196C133D107C9F7F89426
:02235000FFCFBD
:10235200303030304646000000ED048000000000BE
:10236200002B062B062B06670163016001000000AB
:10237200001B04D7035E01670163015B018B01004F
:10238200000000BC053805850563057705030620B6
:10239200003A000D0A0044454641554C542054452C
:0423A200585400008B
:00000001FF
